{
  "contractName": "XPSToken",
  "abi": [
    {
      "inputs": [
        {
          "internalType": "string",
          "name": "contractName",
          "type": "string"
        },
        {
          "internalType": "string",
          "name": "contractSymbol",
          "type": "string"
        },
        {
          "internalType": "uint8",
          "name": "contractDecimals",
          "type": "uint8"
        },
        {
          "internalType": "uint256",
          "name": "initialSupply",
          "type": "uint256"
        },
        {
          "internalType": "address payable",
          "name": "initialMarketingPoolWallet",
          "type": "address"
        },
        {
          "internalType": "address payable",
          "name": "initialCommunityRewardPoolWallet",
          "type": "address"
        },
        {
          "internalType": "address",
          "name": "routerAddress",
          "type": "address"
        },
        {
          "internalType": "address",
          "name": "contractTeamWallet",
          "type": "address"
        }
      ],
      "stateMutability": "payable",
      "type": "constructor",
      "payable": true
    },
    {
      "anonymous": false,
      "inputs": [
        {
          "indexed": true,
          "internalType": "address",
          "name": "owner",
          "type": "address"
        },
        {
          "indexed": true,
          "internalType": "address",
          "name": "spender",
          "type": "address"
        },
        {
          "indexed": false,
          "internalType": "uint256",
          "name": "value",
          "type": "uint256"
        }
      ],
      "name": "Approval",
      "type": "event"
    },
    {
      "anonymous": false,
      "inputs": [
        {
          "indexed": true,
          "internalType": "address",
          "name": "previousOwner",
          "type": "address"
        },
        {
          "indexed": true,
          "internalType": "address",
          "name": "newOwner",
          "type": "address"
        }
      ],
      "name": "OwnershipTransferred",
      "type": "event"
    },
    {
      "anonymous": false,
      "inputs": [
        {
          "indexed": false,
          "internalType": "uint256",
          "name": "tokensSwapped",
          "type": "uint256"
        },
        {
          "indexed": false,
          "internalType": "uint256",
          "name": "ethReceived",
          "type": "uint256"
        }
      ],
      "name": "SwapAndCommunity",
      "type": "event"
    },
    {
      "anonymous": false,
      "inputs": [
        {
          "indexed": false,
          "internalType": "uint256",
          "name": "tokensSwapped",
          "type": "uint256"
        },
        {
          "indexed": false,
          "internalType": "uint256",
          "name": "ethReceived",
          "type": "uint256"
        },
        {
          "indexed": false,
          "internalType": "uint256",
          "name": "tokensIntoLiqudity",
          "type": "uint256"
        }
      ],
      "name": "SwapAndLiquify",
      "type": "event"
    },
    {
      "anonymous": false,
      "inputs": [
        {
          "indexed": false,
          "internalType": "uint256",
          "name": "tokensSwapped",
          "type": "uint256"
        },
        {
          "indexed": false,
          "internalType": "uint256",
          "name": "ethReceived",
          "type": "uint256"
        }
      ],
      "name": "SwapAndMarketing",
      "type": "event"
    },
    {
      "anonymous": false,
      "inputs": [
        {
          "indexed": true,
          "internalType": "address",
          "name": "from",
          "type": "address"
        },
        {
          "indexed": true,
          "internalType": "address",
          "name": "to",
          "type": "address"
        },
        {
          "indexed": false,
          "internalType": "uint256",
          "name": "value",
          "type": "uint256"
        }
      ],
      "name": "Transfer",
      "type": "event"
    },
    {
      "inputs": [],
      "name": "WETH",
      "outputs": [
        {
          "internalType": "address",
          "name": "",
          "type": "address"
        }
      ],
      "stateMutability": "view",
      "type": "function",
      "constant": true
    },
    {
      "inputs": [],
      "name": "_burnFee",
      "outputs": [
        {
          "internalType": "uint256",
          "name": "",
          "type": "uint256"
        }
      ],
      "stateMutability": "view",
      "type": "function",
      "constant": true
    },
    {
      "inputs": [],
      "name": "_commonFee",
      "outputs": [
        {
          "internalType": "uint256",
          "name": "",
          "type": "uint256"
        }
      ],
      "stateMutability": "view",
      "type": "function",
      "constant": true
    },
    {
      "inputs": [],
      "name": "_communityRewardPoolFee",
      "outputs": [
        {
          "internalType": "uint256",
          "name": "",
          "type": "uint256"
        }
      ],
      "stateMutability": "view",
      "type": "function",
      "constant": true
    },
    {
      "inputs": [],
      "name": "_communityTriggerAmount",
      "outputs": [
        {
          "internalType": "uint256",
          "name": "",
          "type": "uint256"
        }
      ],
      "stateMutability": "view",
      "type": "function",
      "constant": true
    },
    {
      "inputs": [],
      "name": "_currentCommunityTriggerAmount",
      "outputs": [
        {
          "internalType": "uint256",
          "name": "",
          "type": "uint256"
        }
      ],
      "stateMutability": "view",
      "type": "function",
      "constant": true
    },
    {
      "inputs": [],
      "name": "_currentLiquidityTriggerAmount",
      "outputs": [
        {
          "internalType": "uint256",
          "name": "",
          "type": "uint256"
        }
      ],
      "stateMutability": "view",
      "type": "function",
      "constant": true
    },
    {
      "inputs": [],
      "name": "_currentMarketingTriggerAmount",
      "outputs": [
        {
          "internalType": "uint256",
          "name": "",
          "type": "uint256"
        }
      ],
      "stateMutability": "view",
      "type": "function",
      "constant": true
    },
    {
      "inputs": [],
      "name": "_currentOffsetVoteCommonFee",
      "outputs": [
        {
          "internalType": "uint256",
          "name": "",
          "type": "uint256"
        }
      ],
      "stateMutability": "view",
      "type": "function",
      "constant": true
    },
    {
      "inputs": [],
      "name": "_currentOffsetVoteCommunityRewardPoolWallet",
      "outputs": [
        {
          "internalType": "uint256",
          "name": "",
          "type": "uint256"
        }
      ],
      "stateMutability": "view",
      "type": "function",
      "constant": true
    },
    {
      "inputs": [],
      "name": "_currentOffsetVoteMarketingPoolWallet",
      "outputs": [
        {
          "internalType": "uint256",
          "name": "",
          "type": "uint256"
        }
      ],
      "stateMutability": "view",
      "type": "function",
      "constant": true
    },
    {
      "inputs": [],
      "name": "_currentOffsetVoteSpecialFee",
      "outputs": [
        {
          "internalType": "uint256",
          "name": "",
          "type": "uint256"
        }
      ],
      "stateMutability": "view",
      "type": "function",
      "constant": true
    },
    {
      "inputs": [],
      "name": "_inVoteCommonFee",
      "outputs": [
        {
          "internalType": "bool",
          "name": "",
          "type": "bool"
        }
      ],
      "stateMutability": "view",
      "type": "function",
      "constant": true
    },
    {
      "inputs": [],
      "name": "_inVoteCommunityRewardPoolWallet",
      "outputs": [
        {
          "internalType": "bool",
          "name": "",
          "type": "bool"
        }
      ],
      "stateMutability": "view",
      "type": "function",
      "constant": true
    },
    {
      "inputs": [],
      "name": "_inVoteMarketingPoolWallet",
      "outputs": [
        {
          "internalType": "bool",
          "name": "",
          "type": "bool"
        }
      ],
      "stateMutability": "view",
      "type": "function",
      "constant": true
    },
    {
      "inputs": [],
      "name": "_inVoteSpecialFee",
      "outputs": [
        {
          "internalType": "bool",
          "name": "",
          "type": "bool"
        }
      ],
      "stateMutability": "view",
      "type": "function",
      "constant": true
    },
    {
      "inputs": [],
      "name": "_liquidityPoolFee",
      "outputs": [
        {
          "internalType": "uint256",
          "name": "",
          "type": "uint256"
        }
      ],
      "stateMutability": "view",
      "type": "function",
      "constant": true
    },
    {
      "inputs": [],
      "name": "_liquidityTriggerAmount",
      "outputs": [
        {
          "internalType": "uint256",
          "name": "",
          "type": "uint256"
        }
      ],
      "stateMutability": "view",
      "type": "function",
      "constant": true
    },
    {
      "inputs": [],
      "name": "_lockedTokensForTeam",
      "outputs": [
        {
          "internalType": "uint256",
          "name": "",
          "type": "uint256"
        }
      ],
      "stateMutability": "view",
      "type": "function",
      "constant": true
    },
    {
      "inputs": [],
      "name": "_marketingPoolFee",
      "outputs": [
        {
          "internalType": "uint256",
          "name": "",
          "type": "uint256"
        }
      ],
      "stateMutability": "view",
      "type": "function",
      "constant": true
    },
    {
      "inputs": [],
      "name": "_marketingTriggerAmount",
      "outputs": [
        {
          "internalType": "uint256",
          "name": "",
          "type": "uint256"
        }
      ],
      "stateMutability": "view",
      "type": "function",
      "constant": true
    },
    {
      "inputs": [],
      "name": "_percentFromSupplyForTeam",
      "outputs": [
        {
          "internalType": "uint256",
          "name": "",
          "type": "uint256"
        }
      ],
      "stateMutability": "view",
      "type": "function",
      "constant": true
    },
    {
      "inputs": [],
      "name": "_percentReleaseFirstStep",
      "outputs": [
        {
          "internalType": "uint256",
          "name": "",
          "type": "uint256"
        }
      ],
      "stateMutability": "view",
      "type": "function",
      "constant": true
    },
    {
      "inputs": [],
      "name": "_percentReleaseSecondStep",
      "outputs": [
        {
          "internalType": "uint256",
          "name": "",
          "type": "uint256"
        }
      ],
      "stateMutability": "view",
      "type": "function",
      "constant": true
    },
    {
      "inputs": [],
      "name": "_specialFee",
      "outputs": [
        {
          "internalType": "uint256",
          "name": "",
          "type": "uint256"
        }
      ],
      "stateMutability": "view",
      "type": "function",
      "constant": true
    },
    {
      "inputs": [],
      "name": "_timeToReleaseFirstStep",
      "outputs": [
        {
          "internalType": "uint256",
          "name": "",
          "type": "uint256"
        }
      ],
      "stateMutability": "view",
      "type": "function",
      "constant": true
    },
    {
      "inputs": [],
      "name": "_timeToReleaseSecondStep",
      "outputs": [
        {
          "internalType": "uint256",
          "name": "",
          "type": "uint256"
        }
      ],
      "stateMutability": "view",
      "type": "function",
      "constant": true
    },
    {
      "inputs": [],
      "name": "_totalCommunityTriggerAmount",
      "outputs": [
        {
          "internalType": "uint256",
          "name": "",
          "type": "uint256"
        }
      ],
      "stateMutability": "view",
      "type": "function",
      "constant": true
    },
    {
      "inputs": [],
      "name": "_totalLiquidityTriggerAmount",
      "outputs": [
        {
          "internalType": "uint256",
          "name": "",
          "type": "uint256"
        }
      ],
      "stateMutability": "view",
      "type": "function",
      "constant": true
    },
    {
      "inputs": [],
      "name": "_totalMarketingTriggerAmount",
      "outputs": [
        {
          "internalType": "uint256",
          "name": "",
          "type": "uint256"
        }
      ],
      "stateMutability": "view",
      "type": "function",
      "constant": true
    },
    {
      "inputs": [],
      "name": "_votedCommonFee",
      "outputs": [
        {
          "internalType": "uint256",
          "name": "",
          "type": "uint256"
        }
      ],
      "stateMutability": "view",
      "type": "function",
      "constant": true
    },
    {
      "inputs": [
        {
          "internalType": "uint256",
          "name": "",
          "type": "uint256"
        }
      ],
      "name": "_votedCommonFeeWallets",
      "outputs": [
        {
          "internalType": "address",
          "name": "",
          "type": "address"
        }
      ],
      "stateMutability": "view",
      "type": "function",
      "constant": true
    },
    {
      "inputs": [],
      "name": "_votedCommunityRewardPoolWallet",
      "outputs": [
        {
          "internalType": "address payable",
          "name": "",
          "type": "address"
        }
      ],
      "stateMutability": "view",
      "type": "function",
      "constant": true
    },
    {
      "inputs": [
        {
          "internalType": "uint256",
          "name": "",
          "type": "uint256"
        }
      ],
      "name": "_votedCommunityRewardPoolWalletWallets",
      "outputs": [
        {
          "internalType": "address",
          "name": "",
          "type": "address"
        }
      ],
      "stateMutability": "view",
      "type": "function",
      "constant": true
    },
    {
      "inputs": [],
      "name": "_votedMarketingPoolWallet",
      "outputs": [
        {
          "internalType": "address payable",
          "name": "",
          "type": "address"
        }
      ],
      "stateMutability": "view",
      "type": "function",
      "constant": true
    },
    {
      "inputs": [
        {
          "internalType": "uint256",
          "name": "",
          "type": "uint256"
        }
      ],
      "name": "_votedMarketingPoolWalletWallets",
      "outputs": [
        {
          "internalType": "address",
          "name": "",
          "type": "address"
        }
      ],
      "stateMutability": "view",
      "type": "function",
      "constant": true
    },
    {
      "inputs": [],
      "name": "_votedSpecialFee",
      "outputs": [
        {
          "internalType": "uint256",
          "name": "",
          "type": "uint256"
        }
      ],
      "stateMutability": "view",
      "type": "function",
      "constant": true
    },
    {
      "inputs": [
        {
          "internalType": "uint256",
          "name": "",
          "type": "uint256"
        }
      ],
      "name": "_votedSpecialFeeWallets",
      "outputs": [
        {
          "internalType": "address",
          "name": "",
          "type": "address"
        }
      ],
      "stateMutability": "view",
      "type": "function",
      "constant": true
    },
    {
      "inputs": [
        {
          "internalType": "address",
          "name": "",
          "type": "address"
        }
      ],
      "name": "_votesCommonFee",
      "outputs": [
        {
          "internalType": "bool",
          "name": "",
          "type": "bool"
        }
      ],
      "stateMutability": "view",
      "type": "function",
      "constant": true
    },
    {
      "inputs": [
        {
          "internalType": "address",
          "name": "",
          "type": "address"
        }
      ],
      "name": "_votesCommunityRewardPoolWallet",
      "outputs": [
        {
          "internalType": "bool",
          "name": "",
          "type": "bool"
        }
      ],
      "stateMutability": "view",
      "type": "function",
      "constant": true
    },
    {
      "inputs": [
        {
          "internalType": "address",
          "name": "",
          "type": "address"
        }
      ],
      "name": "_votesMarketingPoolWallet",
      "outputs": [
        {
          "internalType": "bool",
          "name": "",
          "type": "bool"
        }
      ],
      "stateMutability": "view",
      "type": "function",
      "constant": true
    },
    {
      "inputs": [
        {
          "internalType": "address",
          "name": "",
          "type": "address"
        }
      ],
      "name": "_votesSpecialFee",
      "outputs": [
        {
          "internalType": "bool",
          "name": "",
          "type": "bool"
        }
      ],
      "stateMutability": "view",
      "type": "function",
      "constant": true
    },
    {
      "inputs": [],
      "name": "owner",
      "outputs": [
        {
          "internalType": "address",
          "name": "",
          "type": "address"
        }
      ],
      "stateMutability": "view",
      "type": "function",
      "constant": true
    },
    {
      "inputs": [],
      "name": "pancakeswapV2Pair",
      "outputs": [
        {
          "internalType": "address",
          "name": "",
          "type": "address"
        }
      ],
      "stateMutability": "view",
      "type": "function",
      "constant": true
    },
    {
      "inputs": [],
      "name": "pancakeswapV2Router",
      "outputs": [
        {
          "internalType": "contract IPancakeRouter02",
          "name": "",
          "type": "address"
        }
      ],
      "stateMutability": "view",
      "type": "function",
      "constant": true
    },
    {
      "inputs": [],
      "name": "renounceOwnership",
      "outputs": [],
      "stateMutability": "nonpayable",
      "type": "function"
    },
    {
      "inputs": [
        {
          "internalType": "address",
          "name": "newOwner",
          "type": "address"
        }
      ],
      "name": "transferOwnership",
      "outputs": [],
      "stateMutability": "nonpayable",
      "type": "function"
    },
    {
      "stateMutability": "payable",
      "type": "receive",
      "payable": true
    },
    {
      "inputs": [],
      "name": "releaseTeamFirstStep",
      "outputs": [],
      "stateMutability": "nonpayable",
      "type": "function"
    },
    {
      "inputs": [],
      "name": "releaseTeamSecondStep",
      "outputs": [],
      "stateMutability": "nonpayable",
      "type": "function"
    },
    {
      "inputs": [
        {
          "internalType": "uint256",
          "name": "newCommonFee",
          "type": "uint256"
        }
      ],
      "name": "startVoteForCommonFee",
      "outputs": [],
      "stateMutability": "nonpayable",
      "type": "function"
    },
    {
      "inputs": [
        {
          "internalType": "bool",
          "name": "vote",
          "type": "bool"
        }
      ],
      "name": "voteForCommonFee",
      "outputs": [],
      "stateMutability": "nonpayable",
      "type": "function"
    },
    {
      "inputs": [
        {
          "internalType": "uint256",
          "name": "newSpecialFee",
          "type": "uint256"
        }
      ],
      "name": "startVoteForSpecialFee",
      "outputs": [],
      "stateMutability": "nonpayable",
      "type": "function"
    },
    {
      "inputs": [
        {
          "internalType": "bool",
          "name": "vote",
          "type": "bool"
        }
      ],
      "name": "voteForSpecialFee",
      "outputs": [],
      "stateMutability": "nonpayable",
      "type": "function"
    },
    {
      "inputs": [
        {
          "internalType": "address payable",
          "name": "newMarketingPoolWallet",
          "type": "address"
        }
      ],
      "name": "startVoteForMarketingPoolWallet",
      "outputs": [],
      "stateMutability": "nonpayable",
      "type": "function"
    },
    {
      "inputs": [
        {
          "internalType": "bool",
          "name": "vote",
          "type": "bool"
        }
      ],
      "name": "voteForMarketingPoolWallet",
      "outputs": [],
      "stateMutability": "nonpayable",
      "type": "function"
    },
    {
      "inputs": [
        {
          "internalType": "address payable",
          "name": "newCommunityRewardPoolWallet",
          "type": "address"
        }
      ],
      "name": "startVoteForCommunityRewardPoolWallet",
      "outputs": [],
      "stateMutability": "nonpayable",
      "type": "function"
    },
    {
      "inputs": [
        {
          "internalType": "bool",
          "name": "vote",
          "type": "bool"
        }
      ],
      "name": "voteForCommunityRewardPoolWallet",
      "outputs": [],
      "stateMutability": "nonpayable",
      "type": "function"
    },
    {
      "inputs": [
        {
          "internalType": "address",
          "name": "account",
          "type": "address"
        }
      ],
      "name": "excludeFromFee",
      "outputs": [],
      "stateMutability": "nonpayable",
      "type": "function"
    },
    {
      "inputs": [
        {
          "internalType": "address",
          "name": "account",
          "type": "address"
        }
      ],
      "name": "includeInFee",
      "outputs": [],
      "stateMutability": "nonpayable",
      "type": "function"
    },
    {
      "inputs": [
        {
          "internalType": "address",
          "name": "account",
          "type": "address"
        }
      ],
      "name": "isExcludedFromFee",
      "outputs": [
        {
          "internalType": "bool",
          "name": "",
          "type": "bool"
        }
      ],
      "stateMutability": "view",
      "type": "function",
      "constant": true
    },
    {
      "inputs": [
        {
          "internalType": "address",
          "name": "account",
          "type": "address"
        }
      ],
      "name": "includeInSpecialFee",
      "outputs": [],
      "stateMutability": "nonpayable",
      "type": "function"
    },
    {
      "inputs": [
        {
          "internalType": "address",
          "name": "account",
          "type": "address"
        }
      ],
      "name": "excludeFromSpecialFee",
      "outputs": [],
      "stateMutability": "nonpayable",
      "type": "function"
    },
    {
      "inputs": [
        {
          "internalType": "address",
          "name": "account",
          "type": "address"
        }
      ],
      "name": "isIncludedInSpecialFee",
      "outputs": [
        {
          "internalType": "bool",
          "name": "",
          "type": "bool"
        }
      ],
      "stateMutability": "view",
      "type": "function",
      "constant": true
    },
    {
      "inputs": [],
      "name": "name",
      "outputs": [
        {
          "internalType": "string",
          "name": "",
          "type": "string"
        }
      ],
      "stateMutability": "view",
      "type": "function",
      "constant": true
    },
    {
      "inputs": [],
      "name": "symbol",
      "outputs": [
        {
          "internalType": "string",
          "name": "",
          "type": "string"
        }
      ],
      "stateMutability": "view",
      "type": "function",
      "constant": true
    },
    {
      "inputs": [],
      "name": "decimals",
      "outputs": [
        {
          "internalType": "uint8",
          "name": "",
          "type": "uint8"
        }
      ],
      "stateMutability": "view",
      "type": "function",
      "constant": true
    },
    {
      "inputs": [],
      "name": "totalSupply",
      "outputs": [
        {
          "internalType": "uint256",
          "name": "",
          "type": "uint256"
        }
      ],
      "stateMutability": "view",
      "type": "function",
      "constant": true
    },
    {
      "inputs": [
        {
          "internalType": "address",
          "name": "account",
          "type": "address"
        }
      ],
      "name": "balanceOf",
      "outputs": [
        {
          "internalType": "uint256",
          "name": "",
          "type": "uint256"
        }
      ],
      "stateMutability": "view",
      "type": "function",
      "constant": true
    },
    {
      "inputs": [
        {
          "internalType": "address",
          "name": "recipient",
          "type": "address"
        },
        {
          "internalType": "uint256",
          "name": "amount",
          "type": "uint256"
        }
      ],
      "name": "transfer",
      "outputs": [
        {
          "internalType": "bool",
          "name": "",
          "type": "bool"
        }
      ],
      "stateMutability": "nonpayable",
      "type": "function"
    },
    {
      "inputs": [
        {
          "internalType": "address",
          "name": "owner",
          "type": "address"
        },
        {
          "internalType": "address",
          "name": "spender",
          "type": "address"
        }
      ],
      "name": "allowance",
      "outputs": [
        {
          "internalType": "uint256",
          "name": "",
          "type": "uint256"
        }
      ],
      "stateMutability": "view",
      "type": "function",
      "constant": true
    },
    {
      "inputs": [
        {
          "internalType": "address",
          "name": "spender",
          "type": "address"
        },
        {
          "internalType": "uint256",
          "name": "amount",
          "type": "uint256"
        }
      ],
      "name": "approve",
      "outputs": [
        {
          "internalType": "bool",
          "name": "",
          "type": "bool"
        }
      ],
      "stateMutability": "nonpayable",
      "type": "function"
    },
    {
      "inputs": [
        {
          "internalType": "address",
          "name": "sender",
          "type": "address"
        },
        {
          "internalType": "address",
          "name": "recipient",
          "type": "address"
        },
        {
          "internalType": "uint256",
          "name": "amount",
          "type": "uint256"
        }
      ],
      "name": "transferFrom",
      "outputs": [
        {
          "internalType": "bool",
          "name": "",
          "type": "bool"
        }
      ],
      "stateMutability": "nonpayable",
      "type": "function"
    },
    {
      "inputs": [
        {
          "internalType": "address",
          "name": "spender",
          "type": "address"
        },
        {
          "internalType": "uint256",
          "name": "addedValue",
          "type": "uint256"
        }
      ],
      "name": "increaseAllowance",
      "outputs": [
        {
          "internalType": "bool",
          "name": "",
          "type": "bool"
        }
      ],
      "stateMutability": "nonpayable",
      "type": "function"
    },
    {
      "inputs": [
        {
          "internalType": "address",
          "name": "spender",
          "type": "address"
        },
        {
          "internalType": "uint256",
          "name": "subtractedValue",
          "type": "uint256"
        }
      ],
      "name": "decreaseAllowance",
      "outputs": [
        {
          "internalType": "bool",
          "name": "",
          "type": "bool"
        }
      ],
      "stateMutability": "nonpayable",
      "type": "function"
    }
  ],
  "bytecode": "0x6101a06040819052601e600781905560286008819055600a6009819055601481556001600b8190556005600c819055600d55600e919091556003600f8181556010919091556012805460ff19908116909155600060158190556017805483169055601a819055601b805460ff60a01b1990811690915595819055601f805490961690955560228590556023805490911690921790915565048c273950006024819055602581905560265560278390558282556029839055602a839055602b839055602c92909255603291909155603c61016052610180526200448538819003908190833981016040819052620000f59162000acb565b62000100336200073c565b6001600160a01b0384166200015c5760405162461bcd60e51b815260206004820181905260248201527f4d61726b6574696e6720706f6f6c2077616c6c65742063616e2774206265203060448201526064015b60405180910390fd5b6001600160a01b038316620001c45760405162461bcd60e51b815260206004820152602760248201527f436f6d6d756e6974792052657761726420706f6f6c2077616c6c65742063616e6044820152660277420626520360cc1b606482015260840162000153565b6001600160a01b0381166200021c5760405162461bcd60e51b815260206004820152601660248201527f5465616d2077616c6c65742063616e2774206265203000000000000000000000604482015260640162000153565b670de0b6b3a76400008510156200029c5760405162461bcd60e51b815260206004820152603560248201527f496e697469616c20737570706c792063616e2774206265206c6573732074686160448201527f6e20313030303030303030303030303030303030300000000000000000000000606482015260840162000153565b8751620002b19060049060208b019062000941565b508651620002c79060059060208a019062000941565b506006805460ff881660ff1991821617909155603180546001600160a01b038087166001600160a01b031992831617909255603080548884169216919091179055602d60209081527f6e102288e20865b3db6fa829ccd1e3df28fdef788f0c4d7ba5a0f69fa8338a028054841660019081179091557f3d6cd96590d88e8b53a64bb143048e37227c34fe497388103c06dcf6f041bf3c80548516821790557ff8e16c5f6af04a65b886d6c2eb99f12f8646503bbd859c11262196779c64f8f680548516821790557f79fb42507296a7ebf8001ae774825478fb594eaf2cea3a5d1dd3c6470b666c0080548516821790557337b72dd7c8aec03e706e5b1efb47f05ef0922a936000527f4a3d0b6b0f110542efc83df63cfe18c560b8eb566a309162ef7f7cae6d1eb286805490941617909255604080516315ab88c960e31b8152905185939284169263ad5c46489260048082019391829003018186803b1580156200043157600080fd5b505afa15801562000446573d6000803e3d6000fd5b505050506040513d601f19601f820116820180604052508101906200046c919062000aac565b6001600160a01b03166080816001600160a01b031660601b81525050806001600160a01b031663c45a01556040518163ffffffff1660e01b815260040160206040518083038186803b158015620004c257600080fd5b505afa158015620004d7573d6000803e3d6000fd5b505050506040513d601f19601f82011682018060405250810190620004fd919062000aac565b6001600160a01b031663c9c6539630836001600160a01b031663ad5c46486040518163ffffffff1660e01b815260040160206040518083038186803b1580156200054657600080fd5b505afa1580156200055b573d6000803e3d6000fd5b505050506040513d601f19601f8201168201806040525081019062000581919062000aac565b6040516001600160e01b031960e085901b1681526001600160a01b03928316600482015291166024820152604401602060405180830381600087803b158015620005ca57600080fd5b505af1158015620005df573d6000803e3d6000fd5b505050506040513d601f19601f8201168201806040525081019062000605919062000aac565b6001600160601b0319606091821b811660c0529082901b1660a0526200062b306200078c565b62000636336200078c565b62000641836200078c565b816001600160a01b031660e0816001600160a01b031660601b8152505062000694606462000680603254896200080c60201b620020c81790919060201c565b6200082160201b620020db1790919060201c565b61014052620006a8426301405c8062000ba0565b61010052620006bc426301e1338062000ba0565b61012052620007063362000700620006eb6064620006806032548c6200080c60201b620020c81790919060201c565b896200082f60201b620020e71790919060201c565b6200083d565b6040518681523390600090600080516020620044658339815191529060200160405180910390a350505050505050505062000c9a565b600080546001600160a01b038381166001600160a01b0319831681178455604051919092169283917f8be0079c531659141344cd1fd0a4f28419497f9722a3daafe3b4186f6b6457e09190a35050565b6000546001600160a01b03163314620007e85760405162461bcd60e51b815260206004820181905260248201527f4f776e61626c653a2063616c6c6572206973206e6f7420746865206f776e6572604482015260640162000153565b6001600160a01b03166000908152602e60205260409020805460ff19166001179055565b60006200081a828462000bdc565b9392505050565b60006200081a828462000bbb565b60006200081a828462000bfe565b6001600160a01b038216620008955760405162461bcd60e51b815260206004820152601f60248201527f42455032303a206d696e7420746f20746865207a65726f206164647265737300604482015260640162000153565b620008b1816003546200093360201b620020f31790919060201c565b6003556001600160a01b038216600090815260016020908152604090912054620008e6918390620020f362000933821b17901c565b6001600160a01b0383166000818152600160205260408082209390935591519091906000805160206200446583398151915290620009279085815260200190565b60405180910390a35050565b60006200081a828462000ba0565b8280546200094f9062000c18565b90600052602060002090601f016020900481019282620009735760008555620009be565b82601f106200098e57805160ff1916838001178555620009be565b82800160010185558215620009be579182015b82811115620009be578251825591602001919060010190620009a1565b50620009cc929150620009d0565b5090565b5b80821115620009cc5760008155600101620009d1565b8051620009f48162000c81565b919050565b600082601f83011262000a0a578081fd5b81516001600160401b038082111562000a275762000a2762000c6b565b604051601f8301601f19908116603f0116810190828211818310171562000a525762000a5262000c6b565b8160405283815260209250868385880101111562000a6e578485fd5b8491505b8382101562000a91578582018301518183018401529082019062000a72565b8382111562000aa257848385830101525b9695505050505050565b60006020828403121562000abe578081fd5b81516200081a8162000c81565b600080600080600080600080610100898b03121562000ae8578384fd5b88516001600160401b038082111562000aff578586fd5b62000b0d8c838d01620009f9565b995060208b015191508082111562000b23578586fd5b5062000b328b828c01620009f9565b975050604089015160ff8116811462000b49578485fd5b60608a0151909650945062000b6160808a01620009e7565b935062000b7160a08a01620009e7565b925062000b8160c08a01620009e7565b915062000b9160e08a01620009e7565b90509295985092959890939650565b6000821982111562000bb65762000bb662000c55565b500190565b60008262000bd757634e487b7160e01b81526012600452602481fd5b500490565b600081600019048311821515161562000bf95762000bf962000c55565b500290565b60008282101562000c135762000c1362000c55565b500390565b600181811c9082168062000c2d57607f821691505b6020821081141562000c4f57634e487b7160e01b600052602260045260246000fd5b50919050565b634e487b7160e01b600052601160045260246000fd5b634e487b7160e01b600052604160045260246000fd5b6001600160a01b038116811462000c9757600080fd5b50565b60805160601c60a05160601c60c05160601c60e05160601c610100516101205161014051610160516101805161370162000d64600039600081816105d2015261111301526000818161063a015261151f015260008181610606015281816110f201526114fe015260008181610a7501526110840152600081816109ac01526114900152600061115a0152600061076c015260008181610cfd015281816130450152818161311b01528181613157015281816131d101526131f801526000610b2a01526137016000f3fe6080604052600436106104355760003560e01c8063715018a611610229578063c0b0fda21161012e578063e26752a6116100b6578063ef17d7271161007a578063ef17d72714610d6e578063f2fde38b14610d84578063f9006c9b14610da4578063fc852c1e14610dba578063fd42b7a314610dd057600080fd5b8063e26752a614610cab578063e286eddc14610ccb578063e5dffed314610ceb578063ea2f0b3714610d1f578063eb9fc15c14610d3f57600080fd5b8063ce3a801c116100fd578063ce3a801c14610bee578063d85ee8d914610c0e578063d8962c2614610c2f578063da22506b14610c45578063dd62ed3e14610c6557600080fd5b8063c0b0fda214610b82578063c364350114610b98578063c910579914610bae578063c94e585414610bce57600080fd5b80639be36d2b116101b1578063a457c2d711610180578063a457c2d714610ad8578063a9059cbb14610af8578063ad5c464814610b18578063b67d8f1f14610b4c578063bbdd050114610b6257600080fd5b80639be36d2b14610a4d578063a0aa782414610a63578063a290f64c14610a97578063a41046b014610ab857600080fd5b80638a0623b4116101f85780638a0623b4146109ce5780638c5dedfa146109e45780638da5cb5b146109fa5780638e2dced414610a1857806395d89b4114610a3857600080fd5b8063715018a61461091c57806373cc948b14610931578063856ec43514610961578063864570291461099a57600080fd5b80633f6981a11161033a57806359c52a33116102c25780636a6adbfe116102865780636a6adbfe1461086a5780636f0a8f26146108805780636f6b663b1461089657806370366f51146108b657806370a08231146108e657600080fd5b806359c52a33146107fd57806361e4bbc814610813578063636d285e14610829578063645887f81461083f578063697bc54f1461085557600080fd5b8063466de5c711610309578063466de5c714610744578063528928841461075a5780635342acb41461078e57806355ffa7c6146107c75780635976db0a146107dd57600080fd5b80633f6981a1146106d8578063437823ec146106ee578063449640851461070e578063457c8f881461072457600080fd5b806323b872dd116103bd578063300409cc1161038c578063300409cc14610628578063313ce5671461065c578063357ae5a71461067e578063395093511461069e5780633b7a5bc4146106be57600080fd5b806323b872dd1461058a57806327d91bb5146105aa5780632d42fe55146105c05780632d89d8ad146105f457600080fd5b8063095ea7b311610404578063095ea7b3146104d857806315f2ba41146104f857806318160ddd1461052857806321108c351461053d578063239bbe531461055257600080fd5b80630178d47714610441578063029a3d5214610470578063059178201461049257806306fdde03146104b657600080fd5b3661043c57005b600080fd5b34801561044d57600080fd5b5060175461045b9060ff1681565b60405190151581526020015b60405180910390f35b34801561047c57600080fd5b5061049061048b3660046133bb565b610df0565b005b34801561049e57600080fd5b506104a860225481565b604051908152602001610467565b3480156104c257600080fd5b506104cb610fda565b6040516104679190613420565b3480156104e457600080fd5b5061045b6104f3366004613390565b61106c565b34801561050457600080fd5b5061045b6105133660046132e0565b60186020526000908152604090205460ff1681565b34801561053457600080fd5b506003546104a8565b34801561054957600080fd5b50610490611082565b34801561055e57600080fd5b50601f54610572906001600160a01b031681565b6040516001600160a01b039091168152602001610467565b34801561059657600080fd5b5061045b6105a5366004613350565b6111ae565b3480156105b657600080fd5b506104a8602a5481565b3480156105cc57600080fd5b506104a87f000000000000000000000000000000000000000000000000000000000000000081565b34801561060057600080fd5b506104a87f000000000000000000000000000000000000000000000000000000000000000081565b34801561063457600080fd5b506104a87f000000000000000000000000000000000000000000000000000000000000000081565b34801561066857600080fd5b5060065460405160ff9091168152602001610467565b34801561068a57600080fd5b506104906106993660046132e0565b611217565b3480156106aa57600080fd5b5061045b6106b9366004613390565b611280565b3480156106ca57600080fd5b5060125461045b9060ff1681565b3480156106e457600080fd5b506104a8601e5481565b3480156106fa57600080fd5b506104906107093660046132e0565b6112b6565b34801561071a57600080fd5b506104a860165481565b34801561073057600080fd5b5061057261073f3660046133db565b611322565b34801561075057600080fd5b506104a860325481565b34801561076657600080fd5b506105727f000000000000000000000000000000000000000000000000000000000000000081565b34801561079a57600080fd5b5061045b6107a93660046132e0565b6001600160a01b03166000908152602e602052604090205460ff1690565b3480156107d357600080fd5b506104a8600b5481565b3480156107e957600080fd5b506104906107f83660046133db565b61134c565b34801561080957600080fd5b506104a860285481565b34801561081f57600080fd5b506104a860275481565b34801561083557600080fd5b506104a8600a5481565b34801561084b57600080fd5b506104a8601a5481565b34801561086157600080fd5b5061049061148e565b34801561087657600080fd5b506104a8600d5481565b34801561088c57600080fd5b506104a8602c5481565b3480156108a257600080fd5b506105726108b13660046133db565b611543565b3480156108c257600080fd5b5061045b6108d13660046132e0565b601c6020526000908152604090205460ff1681565b3480156108f257600080fd5b506104a86109013660046132e0565b6001600160a01b031660009081526001602052604090205490565b34801561092857600080fd5b50610490611553565b34801561093d57600080fd5b5061045b61094c3660046132e0565b60136020526000908152604090205460ff1681565b34801561096d57600080fd5b5061045b61097c3660046132e0565b6001600160a01b03166000908152602f602052604090205460ff1690565b3480156109a657600080fd5b506104a87f000000000000000000000000000000000000000000000000000000000000000081565b3480156109da57600080fd5b506104a860075481565b3480156109f057600080fd5b506104a860255481565b348015610a0657600080fd5b506000546001600160a01b0316610572565b348015610a2457600080fd5b50610490610a333660046133bb565b6115a7565b348015610a4457600080fd5b506104cb61178d565b348015610a5957600080fd5b506104a860295481565b348015610a6f57600080fd5b506104a87f000000000000000000000000000000000000000000000000000000000000000081565b348015610aa357600080fd5b50601f5461045b90600160a01b900460ff1681565b348015610ac457600080fd5b50610490610ad33660046132e0565b61179c565b348015610ae457600080fd5b5061045b610af3366004613390565b6118c9565b348015610b0457600080fd5b5061045b610b13366004613390565b611918565b348015610b2457600080fd5b506105727f000000000000000000000000000000000000000000000000000000000000000081565b348015610b5857600080fd5b506104a860155481565b348015610b6e57600080fd5b50610572610b7d3660046133db565b611925565b348015610b8e57600080fd5b506104a860095481565b348015610ba457600080fd5b506104a860265481565b348015610bba57600080fd5b50610490610bc93660046133bb565b611935565b348015610bda57600080fd5b50610572610be93660046133db565b611b15565b348015610bfa57600080fd5b50610490610c093660046133db565b611b25565b348015610c1a57600080fd5b50601b5461045b90600160a01b900460ff1681565b348015610c3b57600080fd5b506104a8602b5481565b348015610c5157600080fd5b50610490610c603660046133bb565b611c35565b348015610c7157600080fd5b506104a8610c80366004613318565b6001600160a01b03918216600090815260026020908152604080832093909416825291909152205490565b348015610cb757600080fd5b50610490610cc63660046132e0565b611e1c565b348015610cd757600080fd5b50601b54610572906001600160a01b031681565b348015610cf757600080fd5b506105727f000000000000000000000000000000000000000000000000000000000000000081565b348015610d2b57600080fd5b50610490610d3a3660046132e0565b611f3a565b348015610d4b57600080fd5b5061045b610d5a3660046132e0565b602080526000908152604090205460ff1681565b348015610d7a57600080fd5b506104a860085481565b348015610d9057600080fd5b50610490610d9f3660046132e0565b611fa3565b348015610db057600080fd5b506104a860115481565b348015610dc657600080fd5b506104a860245481565b348015610ddc57600080fd5b50610490610deb3660046132e0565b61205c565b336000908152602d602052604090205460ff16610e545760405162461bcd60e51b815260206004820181905260248201527f4f6e6c79206d756c74697369672077616c6c6574732063616e20766f74696e6760448201526064015b60405180910390fd5b60175460ff16610e9e5760405162461bcd60e51b8152602060048201526015602482015274159bdd1a5b99c81a185cdb89dd081cdd185c9d1959605a1b6044820152606401610e4b565b601a546000905b601954811015610f0c57336001600160a01b031660198281548110610eda57634e487b7160e01b600052603260045260246000fd5b6000918252602090912001546001600160a01b03161415610efa57600191505b80610f04816135d0565b915050610ea5565b508015610f545760405162461bcd60e51b8152602060048201526016602482015275596f752063616e20766f7465206f6e6c79206f6e636560501b6044820152606401610e4b565b336000818152601860205260408120805460ff1916851515179055601980546001810182559082527f944998273e477b495144fb8794c914197f3ccb46be2900f4698fd0ef743c96950180546001600160a01b031916909217909155610fb86120ff565b905060028160ff161015610fd557610fd58160ff166001146121c8565b505050565b606060048054610fe990613595565b80601f016020809104026020016040519081016040528092919081815260200182805461101590613595565b80156110625780601f1061103757610100808354040283529160200191611062565b820191906000526020600020905b81548152906001019060200180831161104557829003601f168201915b5050505050905090565b600061107933848461229d565b50600192915050565b7f00000000000000000000000000000000000000000000000000000000000000004210156110e65760405162461bcd60e51b8152602060048201526011602482015270125d09dcc81b9bdd081d1a5b59481e595d607a1b6044820152606401610e4b565b600061113d60646111377f00000000000000000000000000000000000000000000000000000000000000007f00000000000000000000000000000000000000000000000000000000000000006120c8565b906120db565b905061114a6000826123c1565b6040518181526001600160a01b037f000000000000000000000000000000000000000000000000000000000000000016906000907fddf252ad1be2c89b69c2b068fc378daa952ba7f163c4a11628f55a4df523b3ef9060200160405180910390a350565b60006111bb8484846124a7565b61120d843361120885604051806060016040528060288152602001613617602891396001600160a01b038a1660009081526002602090815260408083203384529091529020549190612805565b61229d565b5060019392505050565b6000546001600160a01b0316331461125f5760405162461bcd60e51b8152602060048201819052602482015260008051602061363f8339815191526044820152606401610e4b565b6001600160a01b03166000908152602f60205260409020805460ff19169055565b3360008181526002602090815260408083206001600160a01b0387168452909152812054909161107991859061120890866120f3565b6000546001600160a01b031633146112fe5760405162461bcd60e51b8152602060048201819052602482015260008051602061363f8339815191526044820152606401610e4b565b6001600160a01b03166000908152602e60205260409020805460ff19166001179055565b6014818154811061133257600080fd5b6000918252602090912001546001600160a01b0316905081565b336000908152602d602052604090205460ff1661137b5760405162461bcd60e51b8152600401610e4b90613473565b60175460ff16156113c85760405162461bcd60e51b8152602060048201526017602482015276159bdd19481a5cc8185b1c9958591e481cdd185c9d1959604a1b6044820152606401610e4b565b600a81111561140d5760405162461bcd60e51b815260206004820152601160248201527004d6178696d756d2066656520697320313607c1b6044820152606401610e4b565b6017805460ff1916600190811790915560168290556018600061142d3390565b6001600160a01b031681526020810191909152604001600020805460ff19169115159190911790556019335b81546001810183556000928352602090922090910180546001600160a01b0319166001600160a01b0390921691909117905550565b7f00000000000000000000000000000000000000000000000000000000000000004210156114f25760405162461bcd60e51b8152602060048201526011602482015270125d09dcc81b9bdd081d1a5b59481e595d607a1b6044820152606401610e4b565b600061113d60646111377f00000000000000000000000000000000000000000000000000000000000000007f00000000000000000000000000000000000000000000000000000000000000006120c8565b6019818154811061133257600080fd5b6000546001600160a01b0316331461159b5760405162461bcd60e51b8152602060048201819052602482015260008051602061363f8339815191526044820152606401610e4b565b6115a56000612831565b565b336000908152602d602052604090205460ff166116065760405162461bcd60e51b815260206004820181905260248201527f4f6e6c79206d756c74697369672077616c6c6574732063616e20766f74696e676044820152606401610e4b565b601f54600160a01b900460ff166116575760405162461bcd60e51b8152602060048201526015602482015274159bdd1a5b99c81a185cdb89dd081cdd185c9d1959605a1b6044820152606401610e4b565b6022546000905b6021548110156116c557336001600160a01b03166021828154811061169357634e487b7160e01b600052603260045260246000fd5b6000918252602090912001546001600160a01b031614156116b357600191505b806116bd816135d0565b91505061165e565b50801561170d5760405162461bcd60e51b8152602060048201526016602482015275596f752063616e20766f7465206f6e6c79206f6e636560501b6044820152606401610e4b565b3360008181526020805260408120805460ff1916851515179055602180546001810182559082527f3a6357012c1a3ae0a17d304c9920310382d968ebcc4b1771f41c6b304205b5700180546001600160a01b031916909217909155611770612881565b905060028160ff161015610fd557610fd58160ff1660011461291a565b606060058054610fe990613595565b6001600160a01b0381166118025760405162461bcd60e51b815260206004820152602760248201527f436f6d6d756e6974792072657761726420706f6f6c2077616c6c65742063616e6044820152660277420626520360cc1b6064820152608401610e4b565b336000908152602d602052604090205460ff166118315760405162461bcd60e51b8152600401610e4b90613473565b601f54600160a01b900460ff16156118855760405162461bcd60e51b8152602060048201526017602482015276159bdd19481a5cc8185b1c9958591e481cdd185c9d1959604a1b6044820152606401610e4b565b601f80546001600160a01b0383166001600160a81b031990911617600160a01b1790553360008181526020805260409020805460ff19166001179055602190611459565b6000611079338461120885604051806060016040528060258152602001613685602591393360009081526002602090815260408083206001600160a01b038d1684529091529020549190612805565b60006110793384846124a7565b6021818154811061133257600080fd5b336000908152602d602052604090205460ff166119945760405162461bcd60e51b815260206004820181905260248201527f4f6e6c79206d756c74697369672077616c6c6574732063616e20766f74696e676044820152606401610e4b565b60125460ff166119de5760405162461bcd60e51b8152602060048201526015602482015274159bdd1a5b99c81a185cdb89dd081cdd185c9d1959605a1b6044820152606401610e4b565b6015546000905b601454811015611a4c57336001600160a01b031660148281548110611a1a57634e487b7160e01b600052603260045260246000fd5b6000918252602090912001546001600160a01b03161415611a3a57600191505b80611a44816135d0565b9150506119e5565b508015611a945760405162461bcd60e51b8152602060048201526016602482015275596f752063616e20766f7465206f6e6c79206f6e636560501b6044820152606401610e4b565b336000818152601360205260408120805460ff1916851515179055601480546001810182559082527fce6d7b5282bd9a3661ae061feed1dbda4e52ab073b1f9285be6e155d9c38d4ec0180546001600160a01b031916909217909155611af8612a07565b905060028160ff161015610fd557610fd58160ff16600114612aa2565b601d818154811061133257600080fd5b336000908152602d602052604090205460ff16611b545760405162461bcd60e51b8152600401610e4b90613473565b60125460ff1615611ba15760405162461bcd60e51b8152602060048201526017602482015276159bdd19481a5cc8185b1c9958591e481cdd185c9d1959604a1b6044820152606401610e4b565b6005811115611be55760405162461bcd60e51b815260206004820152601060248201526f4d6178696d756d20666565206973203560801b6044820152606401610e4b565b6012805460ff19166001908117909155601182905560136000611c053390565b6001600160a01b031681526020810191909152604001600020805460ff1916911515919091179055601433611459565b336000908152602d602052604090205460ff16611c945760405162461bcd60e51b815260206004820181905260248201527f4f6e6c79206d756c74697369672077616c6c6574732063616e20766f74696e676044820152606401610e4b565b601b54600160a01b900460ff16611ce55760405162461bcd60e51b8152602060048201526015602482015274159bdd1a5b99c81a185cdb89dd081cdd185c9d1959605a1b6044820152606401610e4b565b601e546000905b601d54811015611d5357336001600160a01b0316601d8281548110611d2157634e487b7160e01b600052603260045260246000fd5b6000918252602090912001546001600160a01b03161415611d4157600191505b80611d4b816135d0565b915050611cec565b508015611d9b5760405162461bcd60e51b8152602060048201526016602482015275596f752063616e20766f7465206f6e6c79206f6e636560501b6044820152606401610e4b565b336000818152601c60205260408120805460ff1916851515179055601d80546001810182559082527f6d4407e7be21f808e6509aa9fa9143369579dd7d760fe20a2c09680fc146134f0180546001600160a01b031916909217909155611dff612b77565b905060028160ff161015610fd557610fd58160ff16600114612c12565b6001600160a01b038116611e725760405162461bcd60e51b815260206004820181905260248201527f4d61726b6574696e6720706f6f6c2077616c6c65742063616e277420626520306044820152606401610e4b565b336000908152602d602052604090205460ff16611ea15760405162461bcd60e51b8152600401610e4b90613473565b601b54600160a01b900460ff1615611ef55760405162461bcd60e51b8152602060048201526017602482015276159bdd19481a5cc8185b1c9958591e481cdd185c9d1959604a1b6044820152606401610e4b565b601b80546001600160a01b0383166001600160a81b031990911617600160a01b179055336000818152601c60205260409020805460ff19166001179055601d90611459565b6000546001600160a01b03163314611f825760405162461bcd60e51b8152602060048201819052602482015260008051602061363f8339815191526044820152606401610e4b565b6001600160a01b03166000908152602e60205260409020805460ff19169055565b6000546001600160a01b03163314611feb5760405162461bcd60e51b8152602060048201819052602482015260008051602061363f8339815191526044820152606401610e4b565b6001600160a01b0381166120505760405162461bcd60e51b815260206004820152602660248201527f4f776e61626c653a206e6577206f776e657220697320746865207a65726f206160448201526564647265737360d01b6064820152608401610e4b565b61205981612831565b50565b6000546001600160a01b031633146120a45760405162461bcd60e51b8152602060048201819052602482015260008051602061363f8339815191526044820152606401610e4b565b6001600160a01b03166000908152602f60205260409020805460ff19166001179055565b60006120d4828461355f565b9392505050565b60006120d4828461353f565b60006120d4828461357e565b60006120d48284613527565b601a54600090819081905b60195481101561219a5760006019828154811061213757634e487b7160e01b600052603260045260246000fd5b60009182526020808320909101546001600160a01b0316808352601890915260409091205490915060ff1615612179576121728460016120f3565b9350612187565b6121848360016120f3565b92505b5080612192816135d0565b91505061210a565b50600f5482106121ad5760019250505090565b60105481106121bf5760009250505090565b60029250505090565b80156121d557601654600d555b60006016556017805460ff19169055601a545b6019548110156122935760006019828154811061221557634e487b7160e01b600052603260045260246000fd5b60009182526020808320909101546001600160a01b031680835260189091526040909120805460ff1916905560198054919250908390811061226757634e487b7160e01b600052603260045260246000fd5b600091825260209091200180546001600160a01b0319169055508061228b816135d0565b9150506121e8565b5050601954601a55565b6001600160a01b0383166122ff5760405162461bcd60e51b8152602060048201526024808201527f42455032303a20617070726f76652066726f6d20746865207a65726f206164646044820152637265737360e01b6064820152608401610e4b565b6001600160a01b0382166123605760405162461bcd60e51b815260206004820152602260248201527f42455032303a20617070726f766520746f20746865207a65726f206164647265604482015261737360f01b6064820152608401610e4b565b6001600160a01b0383811660008181526002602090815260408083209487168084529482529182902085905590518481527f8c5be1e5ebec7d5bd14f71427d1e84f3dd0314c0f7b2291e5b200ac8c7c3b925910160405180910390a3505050565b6001600160a01b0382166124175760405162461bcd60e51b815260206004820152601f60248201527f42455032303a206d696e7420746f20746865207a65726f2061646472657373006044820152606401610e4b565b60035461242490826120f3565b6003556001600160a01b03821660009081526001602052604090205461244a90826120f3565b6001600160a01b0383166000818152600160205260408082209390935591519091907fddf252ad1be2c89b69c2b068fc378daa952ba7f163c4a11628f55a4df523b3ef9061249b9085815260200190565b60405180910390a35050565b6001600160a01b03831661250b5760405162461bcd60e51b815260206004820152602560248201527f42455032303a207472616e736665722066726f6d20746865207a65726f206164604482015264647265737360d81b6064820152608401610e4b565b6001600160a01b03821661256d5760405162461bcd60e51b815260206004820152602360248201527f42455032303a207472616e7366657220746f20746865207a65726f206164647260448201526265737360e81b6064820152608401610e4b565b6125aa8160405180606001604052806026815260200161365f602691396001600160a01b0386166000908152600160205260409020549190612805565b6001600160a01b038416600090815260016020526040902055806125cd336107a9565b6127805760006125dc3361097c565b15612602576125fb6064611137600d54856120c890919063ffffffff16565b905061261f565b61261c6064611137600b54856120c890919063ffffffff16565b90505b600061263b6064611137600754856120c890919063ffffffff16565b905060006126596064611137600854866120c890919063ffffffff16565b905060006126776064611137600954876120c890919063ffffffff16565b905060006126956064611137600a54886120c890919063ffffffff16565b90506126af816126a9848187818c8b6120e7565b906120e7565b95506126bb3083612d01565b6029546126c890826120f3565b602955602c546126d890826120f3565b602c556028546126e890846120f3565b602855602b546126f890846120f3565b602b5560275461270890856120f3565b602755602a5461271890856120f3565b602a5560235460ff161561277a57602654602954106127425761273c602954612e05565b60006029555b6025546028541061275e57612758602854612ea2565b60006028555b6024546027541061277a57612774602754612f42565b60006027555b50505050505b6001600160a01b0383166000908152600160205260409020546127a390826120f3565b6001600160a01b0380851660008181526001602052604090819020939093559151908616907fddf252ad1be2c89b69c2b068fc378daa952ba7f163c4a11628f55a4df523b3ef906127f79086815260200190565b60405180910390a350505050565b600081848411156128295760405162461bcd60e51b8152600401610e4b9190613420565b505050900390565b600080546001600160a01b038381166001600160a01b0319831681178455604051919092169283917f8be0079c531659141344cd1fd0a4f28419497f9722a3daafe3b4186f6b6457e09190a35050565b602254600090819081905b60215481101561219a576000602182815481106128b957634e487b7160e01b600052603260045260246000fd5b60009182526020808320909101546001600160a01b031680835290805260409091205490915060ff16156128f9576128f28460016120f3565b9350612907565b6129048360016120f3565b92505b5080612912816135d0565b91505061288c565b801561294357601f54603180546001600160a01b0319166001600160a01b039092169190911790555b601f805460ff60a01b191690556022545b6021548110156129fd5760006021828154811061298157634e487b7160e01b600052603260045260246000fd5b60009182526020808320909101546001600160a01b03168083529080526040909120805460ff191690556021805491925090839081106129d157634e487b7160e01b600052603260045260246000fd5b600091825260209091200180546001600160a01b031916905550806129f5816135d0565b915050612954565b5050602154602255565b601554600090819081905b60145481101561219a57600060148281548110612a3f57634e487b7160e01b600052603260045260246000fd5b60009182526020808320909101546001600160a01b0316808352601390915260409091205490915060ff1615612a8157612a7a8460016120f3565b9350612a8f565b612a8c8360016120f3565b92505b5080612a9a816135d0565b915050612a12565b8015612aaf57601154600b555b60006011556012805460ff191690556015545b601454811015612b6d57600060148281548110612aef57634e487b7160e01b600052603260045260246000fd5b60009182526020808320909101546001600160a01b031680835260139091526040909120805460ff19169055601480549192509083908110612b4157634e487b7160e01b600052603260045260246000fd5b600091825260209091200180546001600160a01b03191690555080612b65816135d0565b915050612ac2565b5050601454601555565b601e54600090819081905b601d5481101561219a576000601d8281548110612baf57634e487b7160e01b600052603260045260246000fd5b60009182526020808320909101546001600160a01b0316808352601c90915260409091205490915060ff1615612bf157612bea8460016120f3565b9350612bff565b612bfc8360016120f3565b92505b5080612c0a816135d0565b915050612b82565b8015612c3b57601b54603080546001600160a01b0319166001600160a01b039092169190911790555b601b805460ff60a01b19169055601e545b601d54811015612cf7576000601d8281548110612c7957634e487b7160e01b600052603260045260246000fd5b60009182526020808320909101546001600160a01b0316808352601c9091526040909120805460ff19169055601d80549192509083908110612ccb57634e487b7160e01b600052603260045260246000fd5b600091825260209091200180546001600160a01b03191690555080612cef816135d0565b915050612c4c565b5050601d54601e55565b6001600160a01b038216612d615760405162461bcd60e51b815260206004820152602160248201527f42455032303a206275726e2066726f6d20746865207a65726f206164647265736044820152607360f81b6064820152608401610e4b565b612d9e816040518060600160405280602281526020016136aa602291396001600160a01b0385166000908152600160205260409020549190612805565b6001600160a01b038316600090815260016020526040902055600354612dc490826120e7565b6003556040518181526000906001600160a01b038416907fddf252ad1be2c89b69c2b068fc378daa952ba7f163c4a11628f55a4df523b3ef9060200161249b565b6033805461ff00191661010017905547612e1e82612fe0565b6000612e2a47836120e7565b6031546040519192506001600160a01b03169082156108fc029083906000818181858888f193505050501561043c5760408051848152602081018390527fc40ceaf6537cd4df7461ecd4e43b4032a94e037d4a03a0aa35459c0e1da8e8d0910160405180910390a150506033805461ff001916905550565b6033805462ff000019166201000017905547612ebd82612fe0565b6000612ec947836120e7565b6030546040519192506001600160a01b03169082156108fc029083906000818181858888f193505050501561043c5760408051848152602081018390527f28f62cba8b4af951771be10fce7cf5b3f36abb84db9423f2826ecd7731c72aaf910160405180910390a150506033805462ff00001916905550565b6033805460ff191660011790556000612f5c8260026120db565b90506000612f6a83836120e7565b905047612f7683612fe0565b6000612f8247836120e7565b9050612f8e83826131cb565b60408051858152602081018390529081018490527f17bbfb9a6069321b6ded73bd96327c9e6b7212a5cd51ff219cd61370acafb5619060600160405180910390a150506033805460ff19169055505050565b604080516002808252606082018352600092602083019080368337019050509050308160008151811061302357634e487b7160e01b600052603260045260246000fd5b60200260200101906001600160a01b031690816001600160a01b0316815250507f00000000000000000000000000000000000000000000000000000000000000006001600160a01b031663ad5c46486040518163ffffffff1660e01b815260040160206040518083038186803b15801561309c57600080fd5b505afa1580156130b0573d6000803e3d6000fd5b505050506040513d601f19601f820116820180604052508101906130d491906132fc565b816001815181106130f557634e487b7160e01b600052603260045260246000fd5b60200260200101906001600160a01b031690816001600160a01b031681525050613140307f00000000000000000000000000000000000000000000000000000000000000008461229d565b60405163791ac94760e01b81526001600160a01b037f0000000000000000000000000000000000000000000000000000000000000000169063791ac947906131959085906000908690309042906004016134b7565b600060405180830381600087803b1580156131af57600080fd5b505af11580156131c3573d6000803e3d6000fd5b505050505050565b6131f6307f00000000000000000000000000000000000000000000000000000000000000008461229d565b7f00000000000000000000000000000000000000000000000000000000000000006001600160a01b031663f305d71982308560008061323d6000546001600160a01b031690565b60405160e088901b6001600160e01b03191681526001600160a01b03958616600482015260248101949094526044840192909252606483015290911660848201524260a482015260c4016060604051808303818588803b1580156132a057600080fd5b505af11580156132b4573d6000803e3d6000fd5b50505050506040513d601f19601f820116820180604052508101906132d991906133f3565b5050505050565b6000602082840312156132f1578081fd5b81356120d481613601565b60006020828403121561330d578081fd5b81516120d481613601565b6000806040838503121561332a578081fd5b823561333581613601565b9150602083013561334581613601565b809150509250929050565b600080600060608486031215613364578081fd5b833561336f81613601565b9250602084013561337f81613601565b929592945050506040919091013590565b600080604083850312156133a2578182fd5b82356133ad81613601565b946020939093013593505050565b6000602082840312156133cc578081fd5b813580151581146120d4578182fd5b6000602082840312156133ec578081fd5b5035919050565b600080600060608486031215613407578283fd5b8351925060208401519150604084015190509250925092565b6000602080835283518082850152825b8181101561344c57858101830151858201604001528201613430565b8181111561345d5783604083870101525b50601f01601f1916929092016040019392505050565b60208082526024908201527f4f6e6c79206d756c74697369672077616c6c6574732063616e20737461727420604082015263766f746560e01b606082015260800190565b600060a082018783526020878185015260a0604085015281875180845260c0860191508289019350845b818110156135065784516001600160a01b0316835293830193918301916001016134e1565b50506001600160a01b03969096166060850152505050608001529392505050565b6000821982111561353a5761353a6135eb565b500190565b60008261355a57634e487b7160e01b81526012600452602481fd5b500490565b6000816000190483118215151615613579576135796135eb565b500290565b600082821015613590576135906135eb565b500390565b600181811c908216806135a957607f821691505b602082108114156135ca57634e487b7160e01b600052602260045260246000fd5b50919050565b60006000198214156135e4576135e46135eb565b5060010190565b634e487b7160e01b600052601160045260246000fd5b6001600160a01b038116811461205957600080fdfe42455032303a207472616e7366657220616d6f756e74206578636565647320616c6c6f77616e63654f776e61626c653a2063616c6c6572206973206e6f7420746865206f776e657242455032303a207472616e7366657220616d6f756e7420657863656564732062616c616e636542455032303a2064656372656173656420616c6c6f77616e63652062656c6f77207a65726f42455032303a206275726e20616d6f756e7420657863656564732062616c616e6365a2646970667358221220f837e167b8712be19120f1d5e9b91ed7f44ff9eda8e7e2714fd9d4a0d3e38b4664736f6c63430008040033ddf252ad1be2c89b69c2b068fc378daa952ba7f163c4a11628f55a4df523b3ef",
  "immutableReferences": {
    "20": [
      {
        "length": 32,
        "start": 2858
      }
    ],
    "41": [
      {
        "length": 32,
        "start": 3325
      },
      {
        "length": 32,
        "start": 12357
      },
      {
        "length": 32,
        "start": 12571
      },
      {
        "length": 32,
        "start": 12631
      },
      {
        "length": 32,
        "start": 12753
      },
      {
        "length": 32,
        "start": 12792
      }
    ],
    "43": [
      {
        "length": 32,
        "start": 1900
      }
    ],
    "193": [
      {
        "length": 32,
        "start": 4442
      }
    ],
    "195": [
      {
        "length": 32,
        "start": 2476
      },
      {
        "length": 32,
        "start": 5264
      }
    ],
    "197": [
      {
        "length": 32,
        "start": 2677
      },
      {
        "length": 32,
        "start": 4228
      }
    ],
    "199": [
      {
        "length": 32,
        "start": 1542
      },
      {
        "length": 32,
        "start": 4338
      },
      {
        "length": 32,
        "start": 5374
      }
    ],
    "205": [
      {
        "length": 32,
        "start": 1594
      },
      {
        "length": 32,
        "start": 5407
      }
    ],
    "208": [
      {
        "length": 32,
        "start": 1490
      },
      {
        "length": 32,
        "start": 4371
      }
    ]
  },
  "source": "pragma solidity ^0.8.0;\r\n\r\nimport \"@openzeppelin/contracts/access/Ownable.sol\";\r\nimport \"@openzeppelin/contracts/token/ERC20/ERC20.sol\";\r\nimport \"@openzeppelin/contracts/utils/math/SafeMath.sol\";\r\nimport \"@pancakeswap2/pancake-swap-core/contracts/interfaces/IPancakeFactory.sol\";\r\nimport \"@pancakeswap2/pancake-swap-core/contracts/interfaces/IPancakePair.sol\";\r\nimport \"pancakeswap-peripheral/contracts/interfaces/IPancakeRouter01.sol\";\r\nimport \"pancakeswap-peripheral/contracts/interfaces/IPancakeRouter02.sol\";\r\n\r\n/**\r\n * @title BEP20Token\r\n * @author AmberSoft (visit https://ambersoft.llc)\r\n *\r\n * @dev Mintable BEP20 token with burning and optional functions implemented.\r\n * Any address with minter role can mint new tokens.\r\n * For full specification of ERC-20 standard see:\r\n * https://github.com/ethereum/EIPs/blob/master/EIPS/eip-20.md\r\n */\r\ncontract XPSToken is Context, IERC20, Ownable {\r\n    using SafeMath for uint256;\r\n\r\n    address public immutable WETH;\r\n\r\n    mapping(address => uint256) private _balances;\r\n\r\n    mapping(address => mapping(address => uint256)) private _allowances;\r\n\r\n    uint256 private _totalSupply;\r\n\r\n    string private _name;\r\n    string private _symbol;\r\n    uint8 private _decimals;\r\n\r\n    IPancakeRouter02 public immutable pancakeswapV2Router;\r\n    address public immutable pancakeswapV2Pair;\r\n\r\n    // Fees\r\n    uint256 public _liquidityPoolFee = 30;\r\n    uint256 public _marketingPoolFee = 40;\r\n    uint256 public _burnFee = 10;\r\n    uint256 public _communityRewardPoolFee = 20;\r\n\r\n    // Main fee\r\n    uint256 public _commonFee = 1;\r\n    uint256 private _maxCommonFee = 5;\r\n    uint256 public _specialFee = 5;\r\n    uint256 private _maxSpecialFee = 10;\r\n\r\n    // Vote config\r\n    uint256 private _minAcceptedVotes = 3;\r\n    uint256 private _minDeclinedVotes = 3;\r\n\r\n    // Fee votes\r\n    uint256 public _votedCommonFee;\r\n    bool public _inVoteCommonFee = false;\r\n    mapping(address => bool) public _votesCommonFee;\r\n    address[] public _votedCommonFeeWallets;\r\n    uint256 public _currentOffsetVoteCommonFee = 0;\r\n\r\n    uint256 public _votedSpecialFee;\r\n    bool public _inVoteSpecialFee = false;\r\n    mapping(address => bool) public _votesSpecialFee;\r\n    address[] public _votedSpecialFeeWallets;\r\n    uint256 public _currentOffsetVoteSpecialFee = 0;\r\n\r\n    // Pools votes\r\n    address payable public _votedMarketingPoolWallet;\r\n    bool public _inVoteMarketingPoolWallet = false;\r\n    mapping(address => bool) public _votesMarketingPoolWallet;\r\n    address[] public _votedMarketingPoolWalletWallets;\r\n    uint256 public _currentOffsetVoteMarketingPoolWallet = 0;\r\n\r\n    address payable public _votedCommunityRewardPoolWallet;\r\n    bool public _inVoteCommunityRewardPoolWallet = false;\r\n    mapping(address => bool) public _votesCommunityRewardPoolWallet;\r\n    address[] public _votedCommunityRewardPoolWalletWallets;\r\n    uint256 public _currentOffsetVoteCommunityRewardPoolWallet = 0;\r\n\r\n    // Sent to pools on transaction\r\n    bool private _swapOnTransaction = true;\r\n\r\n    // Trigger amount to auto swap\r\n    uint256 public _liquidityTriggerAmount = 5 * 10 ** 12; // = 5,000 tokens\r\n    uint256 public _marketingTriggerAmount = 5 * 10 ** 12; // = 5,000 tokens\r\n    uint256 public _communityTriggerAmount = 5 * 10 ** 12; // = 5,000 tokens\r\n\r\n    // Current amount to swap\r\n    uint256 public _currentLiquidityTriggerAmount = 0;\r\n    uint256 public _currentMarketingTriggerAmount = 0;\r\n    uint256 public _currentCommunityTriggerAmount = 0;\r\n\r\n    // Total amount\r\n    uint256 public _totalLiquidityTriggerAmount = 0;\r\n    uint256 public _totalMarketingTriggerAmount = 0;\r\n    uint256 public _totalCommunityTriggerAmount = 0;\r\n\r\n    // Multisig wallets\r\n    mapping(address => bool) private _multisigWallets;\r\n\r\n    // Excluded from fee\r\n    mapping(address => bool) private _excludedFromFee;\r\n\r\n    // Special addresses\r\n    mapping(address => bool) private _includedInSpecialFee;\r\n\r\n    // Pools addresses\r\n    address payable private _marketingPoolWallet;\r\n    address payable private _communityRewardPoolWallet;\r\n\r\n    // Delayed Team Reward\r\n    address private immutable _teamWallet;\r\n    uint256 public immutable _timeToReleaseFirstStep;\r\n    uint256 public immutable _timeToReleaseSecondStep;\r\n    uint256 public immutable _lockedTokensForTeam;\r\n    uint256 public _percentFromSupplyForTeam = 15;\r\n    uint256 public immutable _percentReleaseFirstStep = 60;\r\n    uint256 public immutable _percentReleaseSecondStep = 40;\r\n\r\n    bool inSwapAndLiquify;\r\n\r\n    modifier lockTheSwap {\r\n        inSwapAndLiquify = true;\r\n        _;\r\n        inSwapAndLiquify = false;\r\n    }\r\n\r\n    event SwapAndLiquify(\r\n        uint256 tokensSwapped,\r\n        uint256 ethReceived,\r\n        uint256 tokensIntoLiqudity\r\n    );\r\n    \r\n    bool inSwapAndCommunity;\r\n\r\n    modifier lockTheSwapCommunity {\r\n        inSwapAndCommunity = true;\r\n        _;\r\n        inSwapAndCommunity = false;\r\n    }\r\n\r\n    event SwapAndCommunity(\r\n        uint256 tokensSwapped,\r\n        uint256 ethReceived\r\n    );\r\n    \r\n    bool inSwapAndMarketing;\r\n\r\n    modifier lockTheSwapMarketing {\r\n        inSwapAndMarketing = true;\r\n        _;\r\n        inSwapAndMarketing = false;\r\n    }\r\n\r\n    event SwapAndMarketing(\r\n        uint256 tokensSwapped,\r\n        uint256 ethReceived\r\n    );\r\n\r\n    constructor(\r\n        string memory contractName,\r\n        string memory contractSymbol,\r\n        uint8 contractDecimals,\r\n        uint256 initialSupply,\r\n        address payable initialMarketingPoolWallet,\r\n        address payable initialCommunityRewardPoolWallet,\r\n        address routerAddress, // 0xD99D1c33F9fC3444f8101754aBC46c52416550D1 - test, 0x10ED43C718714eb63d5aA57B78B54704E256024E - main\r\n        address contractTeamWallet\r\n    ) public payable {\r\n        require(initialMarketingPoolWallet != address(0), \"Marketing pool wallet can't be 0\");\r\n        require(initialCommunityRewardPoolWallet != address(0), \"Community Reward pool wallet can't be 0\");\r\n        require(contractTeamWallet != address(0), \"Team wallet can't be 0\");\r\n        require(initialSupply >= 1000000000000000000, \"Initial supply can't be less than 1000000000000000000\");\r\n\r\n        _name = contractName;\r\n        _symbol = contractSymbol;\r\n        _decimals = contractDecimals;\r\n        _communityRewardPoolWallet = initialCommunityRewardPoolWallet;\r\n        _marketingPoolWallet = initialMarketingPoolWallet;\r\n\r\n        // Initiate multisig wallets @TODO change wallets\r\n        _multisigWallets[0xC21Ec48Db5551B3241b012A7c39ca51D007A4acd] = true;\r\n        _multisigWallets[0x2ec5340c9d4Cd197dB7E3316A8312a401867C5E6] = true;\r\n        _multisigWallets[0x831377AaC16848c0D54F95d6EaEF7Ac46b66F4Cc] = true;\r\n        _multisigWallets[0x7F2f13BAe2F787D65f4dbADF34262396D1E7E3De] = true;\r\n        _multisigWallets[0x37b72DD7C8aec03E706E5B1efB47f05Ef0922A93] = true;\r\n\r\n        IPancakeRouter02 _pancakeswapV2Router = IPancakeRouter02(routerAddress);\r\n        WETH = _pancakeswapV2Router.WETH();\r\n\r\n        // Create a Pancake pair for this new token\r\n        pancakeswapV2Pair = IPancakeFactory(_pancakeswapV2Router.factory())\r\n            .createPair(address(this), _pancakeswapV2Router.WETH());\r\n\r\n        // set the rest of the contract variables\r\n        pancakeswapV2Router = _pancakeswapV2Router;\r\n\r\n        excludeFromFee(address(this));\r\n        excludeFromFee(_msgSender());\r\n        excludeFromFee(routerAddress);\r\n\r\n        _teamWallet = contractTeamWallet;\r\n        _lockedTokensForTeam = (initialSupply.mul(_percentFromSupplyForTeam)).div(100);\r\n        _timeToReleaseFirstStep = block.timestamp + 243 days;\r\n        _timeToReleaseSecondStep = block.timestamp + 365 days;\r\n        // set tokenOwnerAddress as owner of initial supply, more tokens can be minted later\r\n        _mint(_msgSender(), initialSupply.sub((initialSupply.mul(_percentFromSupplyForTeam)).div(100)));\r\n\r\n        emit Transfer(address(0), _msgSender(), initialSupply);\r\n    }\r\n\r\n    function releaseTeamFirstStep() external {\r\n        require(block.timestamp >= _timeToReleaseFirstStep, \"It's not time yet\");\r\n\r\n        uint256 releaseAmount = (_lockedTokensForTeam.mul(_percentReleaseFirstStep)).div(100);\r\n        _mint(address(0), releaseAmount);\r\n        emit Transfer(address(0), _teamWallet, releaseAmount);\r\n    }\r\n\r\n    function releaseTeamSecondStep() external {\r\n        require(block.timestamp >= _timeToReleaseSecondStep, \"It's not time yet\");\r\n\r\n        uint256 releaseAmount = (_lockedTokensForTeam.mul(_percentReleaseSecondStep)).div(100);\r\n        _mint(address(0), releaseAmount);\r\n        emit Transfer(address(0), _teamWallet, releaseAmount);\r\n    }\r\n\r\n    // Vote methods\r\n\r\n    // Common Fee\r\n    function startVoteForCommonFee(uint256 newCommonFee) external {\r\n        require(_multisigWallets[_msgSender()], \"Only multisig wallets can start vote\");\r\n        require(!_inVoteCommonFee, \"Vote is already started\");\r\n        require(newCommonFee <= 5, \"Maximum fee is 5\");\r\n\r\n        _inVoteCommonFee = true;\r\n        _votedCommonFee = newCommonFee;\r\n        _votesCommonFee[_msgSender()] = true;\r\n        _votedCommonFeeWallets.push(_msgSender());\r\n    }\r\n\r\n    function voteForCommonFee(bool vote) external {\r\n        require(_multisigWallets[_msgSender()], \"Only multisig wallets can voting\");\r\n        require(_inVoteCommonFee, \"Voting hasn't started\");\r\n\r\n        bool isInVote = false;\r\n        for (uint i = _currentOffsetVoteCommonFee; i < _votedCommonFeeWallets.length; i++) {\r\n            if(_votedCommonFeeWallets[i] == _msgSender()) {\r\n                isInVote = true;\r\n            }\r\n        }\r\n        require(!isInVote, \"You can vote only once\");\r\n\r\n        _votesCommonFee[_msgSender()] = vote;\r\n        _votedCommonFeeWallets.push(_msgSender());\r\n\r\n        uint8 currentVoteStatus = checkVotingCommonFee();\r\n        if(currentVoteStatus < 2) {\r\n            endCommonFeeVote(currentVoteStatus == 1);\r\n        }\r\n    }\r\n\r\n    function checkVotingCommonFee() internal returns (uint8) {\r\n        uint256 acceptedVotes = 0;\r\n        uint256 declinedVotes = 0;\r\n\r\n        for (uint i = _currentOffsetVoteCommonFee; i < _votedCommonFeeWallets.length; i++) {\r\n            address voteWallet = _votedCommonFeeWallets[i];\r\n            if (_votesCommonFee[voteWallet]) {\r\n                acceptedVotes = acceptedVotes.add(1);\r\n            } else {\r\n                declinedVotes = declinedVotes.add(1);\r\n            }\r\n        }\r\n\r\n        if (acceptedVotes >= _minAcceptedVotes) {\r\n            return 1;\r\n        }\r\n\r\n        if (declinedVotes >= _minDeclinedVotes) {\r\n            return 0;\r\n        }\r\n\r\n        return 2;\r\n    }\r\n\r\n    function endCommonFeeVote(bool decision) internal {\r\n        if(decision) {\r\n            _commonFee = _votedCommonFee;\r\n        }\r\n\r\n        // set to default\r\n        _votedCommonFee = 0;\r\n        _inVoteCommonFee = false;\r\n        for (uint i = _currentOffsetVoteCommonFee; i < _votedCommonFeeWallets.length; i++) {\r\n            address voteWallet = _votedCommonFeeWallets[i];\r\n            delete _votesCommonFee[voteWallet];\r\n            delete _votedCommonFeeWallets[i];\r\n        }\r\n        _currentOffsetVoteCommonFee = _votedCommonFeeWallets.length;\r\n    }\r\n\r\n    // Special fee\r\n    function startVoteForSpecialFee(uint256 newSpecialFee) external {\r\n        require(_multisigWallets[_msgSender()], \"Only multisig wallets can start vote\");\r\n        require(!_inVoteSpecialFee, \"Vote is already started\");\r\n        require(newSpecialFee <= 10, \"Maximum fee is 10\");\r\n\r\n        _inVoteSpecialFee = true;\r\n        _votedSpecialFee = newSpecialFee;\r\n        _votesSpecialFee[_msgSender()] = true;\r\n        _votedSpecialFeeWallets.push(_msgSender());\r\n    }\r\n\r\n    function voteForSpecialFee(bool vote) external {\r\n        require(_multisigWallets[_msgSender()], \"Only multisig wallets can voting\");\r\n        require(_inVoteSpecialFee, \"Voting hasn't started\");\r\n\r\n        bool isInVote = false;\r\n        for (uint i = _currentOffsetVoteSpecialFee; i < _votedSpecialFeeWallets.length; i++) {\r\n            if(_votedSpecialFeeWallets[i] == _msgSender()) {\r\n                isInVote = true;\r\n            }\r\n        }\r\n        require(!isInVote, \"You can vote only once\");\r\n\r\n        _votesSpecialFee[_msgSender()] = vote;\r\n        _votedSpecialFeeWallets.push(_msgSender());\r\n\r\n        uint8 currentVoteStatus = checkVotingSpecialFee();\r\n        if(currentVoteStatus < 2) {\r\n            endSpecialFeeVote(currentVoteStatus == 1);\r\n        }\r\n    }\r\n\r\n    function checkVotingSpecialFee() internal returns (uint8) {\r\n        uint256 acceptedVotes = 0;\r\n        uint256 declinedVotes = 0;\r\n\r\n        for (uint i = _currentOffsetVoteSpecialFee; i < _votedSpecialFeeWallets.length; i++) {\r\n            address voteWallet = _votedSpecialFeeWallets[i];\r\n            if (_votesSpecialFee[voteWallet]) {\r\n                acceptedVotes = acceptedVotes.add(1);\r\n            } else {\r\n                declinedVotes = declinedVotes.add(1);\r\n            }\r\n        }\r\n\r\n        if (acceptedVotes >= _minAcceptedVotes) {\r\n            return 1;\r\n        }\r\n\r\n        if (declinedVotes >= _minDeclinedVotes) {\r\n            return 0;\r\n        }\r\n\r\n        return 2;\r\n    }\r\n\r\n    function endSpecialFeeVote(bool decision) internal {\r\n        if(decision) {\r\n            _specialFee = _votedSpecialFee;\r\n        }\r\n\r\n        // set to default\r\n        _votedSpecialFee = 0;\r\n        _inVoteSpecialFee = false;\r\n        for (uint i = _currentOffsetVoteSpecialFee; i < _votedSpecialFeeWallets.length; i++) {\r\n            address voteWallet = _votedSpecialFeeWallets[i];\r\n            delete _votesSpecialFee[voteWallet];\r\n            delete _votedSpecialFeeWallets[i];\r\n        }\r\n        _currentOffsetVoteSpecialFee = _votedSpecialFeeWallets.length;\r\n    }\r\n    \r\n    // Marketing wallet\r\n    function startVoteForMarketingPoolWallet(address payable newMarketingPoolWallet) external {\r\n        require(newMarketingPoolWallet != address(0), \"Marketing pool wallet can't be 0\");\r\n        require(_multisigWallets[_msgSender()], \"Only multisig wallets can start vote\");\r\n        require(!_inVoteMarketingPoolWallet, \"Vote is already started\");\r\n\r\n        _inVoteMarketingPoolWallet = true;\r\n        _votedMarketingPoolWallet = newMarketingPoolWallet;\r\n        _votesMarketingPoolWallet[_msgSender()] = true;\r\n        _votedMarketingPoolWalletWallets.push(_msgSender());\r\n    }\r\n\r\n    function voteForMarketingPoolWallet(bool vote) external {\r\n        require(_multisigWallets[_msgSender()], \"Only multisig wallets can voting\");\r\n        require(_inVoteMarketingPoolWallet, \"Voting hasn't started\");\r\n\r\n        bool isInVote = false;\r\n        for (uint i = _currentOffsetVoteMarketingPoolWallet; i < _votedMarketingPoolWalletWallets.length; i++) {\r\n            if(_votedMarketingPoolWalletWallets[i] == _msgSender()) {\r\n                isInVote = true;\r\n            }\r\n        }\r\n        require(!isInVote, \"You can vote only once\");\r\n\r\n        _votesMarketingPoolWallet[_msgSender()] = vote;\r\n        _votedMarketingPoolWalletWallets.push(_msgSender());\r\n\r\n        uint8 currentVoteStatus = checkVotingMarketingPoolWallet();\r\n        if(currentVoteStatus < 2) {\r\n            endMarketingPoolWalletVote(currentVoteStatus == 1);\r\n        }\r\n    }\r\n\r\n    function checkVotingMarketingPoolWallet() internal returns (uint8) {\r\n        uint256 acceptedVotes = 0;\r\n        uint256 declinedVotes = 0;\r\n\r\n        for (uint i = _currentOffsetVoteMarketingPoolWallet; i < _votedMarketingPoolWalletWallets.length; i++) {\r\n            address voteWallet = _votedMarketingPoolWalletWallets[i];\r\n            if (_votesMarketingPoolWallet[voteWallet]) {\r\n                acceptedVotes = acceptedVotes.add(1);\r\n            } else {\r\n                declinedVotes = declinedVotes.add(1);\r\n            }\r\n        }\r\n\r\n        if (acceptedVotes >= _minAcceptedVotes) {\r\n            return 1;\r\n        }\r\n\r\n        if (declinedVotes >= _minDeclinedVotes) {\r\n            return 0;\r\n        }\r\n\r\n        return 2;\r\n    }\r\n\r\n    function endMarketingPoolWalletVote(bool decision) internal {\r\n        if(decision) {\r\n            _marketingPoolWallet = _votedMarketingPoolWallet;\r\n        }\r\n\r\n        // set to default\r\n        _inVoteMarketingPoolWallet = false;\r\n        for (uint i = _currentOffsetVoteMarketingPoolWallet; i < _votedMarketingPoolWalletWallets.length; i++) {\r\n            address voteWallet = _votedMarketingPoolWalletWallets[i];\r\n            delete _votesMarketingPoolWallet[voteWallet];\r\n            delete _votedMarketingPoolWalletWallets[i];\r\n        }\r\n\r\n        _currentOffsetVoteMarketingPoolWallet = _votedMarketingPoolWalletWallets.length;\r\n    }\r\n    \r\n    // Community reward wallet\r\n    function startVoteForCommunityRewardPoolWallet(address payable newCommunityRewardPoolWallet) external {\r\n        require(newCommunityRewardPoolWallet != address(0), \"Community reward pool wallet can't be 0\");\r\n        require(_multisigWallets[_msgSender()], \"Only multisig wallets can start vote\");\r\n        require(!_inVoteCommunityRewardPoolWallet, \"Vote is already started\");\r\n\r\n        _inVoteCommunityRewardPoolWallet = true;\r\n        _votedCommunityRewardPoolWallet = newCommunityRewardPoolWallet;\r\n        _votesCommunityRewardPoolWallet[_msgSender()] = true;\r\n        _votedCommunityRewardPoolWalletWallets.push(_msgSender());\r\n    }\r\n\r\n    function voteForCommunityRewardPoolWallet(bool vote) external {\r\n        require(_multisigWallets[_msgSender()], \"Only multisig wallets can voting\");\r\n        require(_inVoteCommunityRewardPoolWallet, \"Voting hasn't started\");\r\n\r\n        bool isInVote = false;\r\n        for (uint i = _currentOffsetVoteCommunityRewardPoolWallet; i < _votedCommunityRewardPoolWalletWallets.length; i++) {\r\n            if(_votedCommunityRewardPoolWalletWallets[i] == _msgSender()) {\r\n                isInVote = true;\r\n            }\r\n        }\r\n        require(!isInVote, \"You can vote only once\");\r\n\r\n        _votesCommunityRewardPoolWallet[_msgSender()] = vote;\r\n        _votedCommunityRewardPoolWalletWallets.push(_msgSender());\r\n\r\n        uint8 currentVoteStatus = checkVotingCommunityRewardPoolWallet();\r\n        if(currentVoteStatus < 2) {\r\n            endCommunityRewardPoolWalletVote(currentVoteStatus == 1);\r\n        }\r\n    }\r\n\r\n    function checkVotingCommunityRewardPoolWallet() internal returns (uint8) {\r\n        uint256 acceptedVotes = 0;\r\n        uint256 declinedVotes = 0;\r\n\r\n        for (uint i = _currentOffsetVoteCommunityRewardPoolWallet; i < _votedCommunityRewardPoolWalletWallets.length; i++) {\r\n            address voteWallet = _votedCommunityRewardPoolWalletWallets[i];\r\n            if (_votesCommunityRewardPoolWallet[voteWallet]) {\r\n                acceptedVotes = acceptedVotes.add(1);\r\n            } else {\r\n                declinedVotes = declinedVotes.add(1);\r\n            }\r\n        }\r\n\r\n        if (acceptedVotes >= _minAcceptedVotes) {\r\n            return 1;\r\n        }\r\n\r\n        if (declinedVotes >= _minDeclinedVotes) {\r\n            return 0;\r\n        }\r\n\r\n        return 2;\r\n    }\r\n\r\n    function endCommunityRewardPoolWalletVote(bool decision) internal {\r\n        if(decision) {\r\n            _communityRewardPoolWallet = _votedCommunityRewardPoolWallet;\r\n        }\r\n\r\n        // set to default\r\n        _inVoteCommunityRewardPoolWallet = false;\r\n        for (uint i = _currentOffsetVoteCommunityRewardPoolWallet; i < _votedCommunityRewardPoolWalletWallets.length; i++) {\r\n            address voteWallet = _votedCommunityRewardPoolWalletWallets[i];\r\n            delete _votesCommunityRewardPoolWallet[voteWallet];\r\n            delete _votedCommunityRewardPoolWalletWallets[i];\r\n        }\r\n\r\n        _currentOffsetVoteCommunityRewardPoolWallet = _votedCommunityRewardPoolWalletWallets.length;\r\n    }\r\n\r\n    function _transfer(address sender, address recipient, uint256 amount) internal {\r\n        require(sender != address(0), \"BEP20: transfer from the zero address\");\r\n        require(recipient != address(0), \"BEP20: transfer to the zero address\");\r\n\r\n        _balances[sender] = _balances[sender].sub(amount, \"BEP20: transfer amount exceeds balance\");\r\n        uint256 totalSendAmount = amount;\r\n\r\n        // Only if address is not excluded from fee\r\n        if(!isExcludedFromFee(_msgSender())) {\r\n            uint256 feeAmount = 0;\r\n            if(isIncludedInSpecialFee(_msgSender())) {\r\n                // Special fee\r\n                feeAmount = (totalSendAmount.mul(_specialFee)).div(100);\r\n            } else {\r\n                // Common fee\r\n                feeAmount = (totalSendAmount.mul(_commonFee)).div(100);\r\n            }\r\n            uint256 liquidityPoolAmount = (feeAmount.mul(_liquidityPoolFee)).div(100);\r\n            uint256 marketingPoolAmount = (feeAmount.mul(_marketingPoolFee)).div(100);\r\n            uint256 burnAmount = (feeAmount.mul(_burnFee)).div(100);\r\n            uint256 communityRewardPoolAmount = (feeAmount.mul(_communityRewardPoolFee)).div(100);\r\n\r\n            totalSendAmount = totalSendAmount\r\n                .sub(liquidityPoolAmount)\r\n                .sub(marketingPoolAmount)\r\n                .sub(burnAmount)\r\n                .sub(communityRewardPoolAmount);\r\n\r\n            // Burn\r\n            _burn(address(this), burnAmount);\r\n            \r\n            // Community Reward Pool\r\n            _currentCommunityTriggerAmount = _currentCommunityTriggerAmount.add(communityRewardPoolAmount);\r\n            _totalCommunityTriggerAmount = _totalCommunityTriggerAmount.add(communityRewardPoolAmount);\r\n            \r\n            // Marketing Pool\r\n            _currentMarketingTriggerAmount = _currentMarketingTriggerAmount.add(marketingPoolAmount);\r\n            _totalMarketingTriggerAmount = _totalMarketingTriggerAmount.add(marketingPoolAmount);\r\n            \r\n            // Liquidity Pool\r\n            _currentLiquidityTriggerAmount = _currentLiquidityTriggerAmount.add(liquidityPoolAmount);\r\n            _totalLiquidityTriggerAmount = _totalLiquidityTriggerAmount.add(liquidityPoolAmount);\r\n            \r\n            if(_swapOnTransaction) {\r\n                if(_currentCommunityTriggerAmount >= _communityTriggerAmount) {\r\n                    swapAndCommunity(_currentCommunityTriggerAmount);\r\n                    _currentCommunityTriggerAmount = 0;\r\n                }\r\n                \r\n                if(_currentMarketingTriggerAmount >= _marketingTriggerAmount) {\r\n                    swapAndMarketing(_currentMarketingTriggerAmount);\r\n                    _currentMarketingTriggerAmount = 0;                    \r\n                }\r\n                \r\n                if(_currentLiquidityTriggerAmount >= _liquidityTriggerAmount) {\r\n                    swapAndLiquify(_currentLiquidityTriggerAmount);\r\n                    _currentLiquidityTriggerAmount = 0;\r\n                }\r\n            }\r\n        }\r\n\r\n        _balances[recipient] = _balances[recipient].add(totalSendAmount);\r\n        emit Transfer(sender, recipient, amount);\r\n    }\r\n\r\n    // to recieve ETH from pancakeswapV2Router when swaping\r\n    receive() external payable {}\r\n\r\n    /**\r\n    * Evaluates whether address is a contract and exists.\r\n    */\r\n    function isContract(address addr) view private returns (bool) {\r\n        uint size;\r\n        assembly {size := extcodesize(addr)}\r\n        return size > 0;\r\n    }\r\n\r\n    function swapAndCommunity(uint256 amount) internal lockTheSwapCommunity {\r\n        // capture the contract's current ETH balance.\r\n        uint256 initialBalance = address(this).balance;\r\n\r\n        // swap tokens for ETH\r\n        swapTokensForEth(amount);\r\n\r\n        // how much ETH did we just swap into?\r\n        uint256 newBalance = address(this).balance.sub(initialBalance);\r\n\r\n        // Send\r\n        if (_communityRewardPoolWallet.send(newBalance))\r\n        {\r\n            emit SwapAndCommunity(amount, newBalance);\r\n        }\r\n        else\r\n        {\r\n            revert();\r\n        }\r\n    }\r\n    \r\n    function swapAndMarketing(uint256 amount) internal lockTheSwapMarketing {\r\n        // capture the contract's current ETH balance.\r\n        uint256 initialBalance = address(this).balance;\r\n\r\n        // swap tokens for ETH\r\n        swapTokensForEth(amount);\r\n\r\n        // how much ETH did we just swap into?\r\n        uint256 newBalance = address(this).balance.sub(initialBalance);\r\n\r\n        // Send\r\n        if ( _marketingPoolWallet.send(newBalance) )\r\n        {\r\n            emit SwapAndMarketing(amount, newBalance);\r\n        }\r\n        else\r\n        {\r\n            revert();\r\n        }\r\n    }\r\n    \r\n    function swapAndLiquify(uint256 contractTokenBalance) private lockTheSwap {\r\n        // split the contract balance into halves\r\n        uint256 half = contractTokenBalance.div(2);\r\n        //ETH\r\n        uint256 otherHalf = contractTokenBalance.sub(half);\r\n        //BNB\r\n\r\n        // capture the contract's current ETH balance.\r\n        // this is so that we can capture exactly the amount of ETH that the\r\n        // swap creates, and not make the liquidity event include any ETH that\r\n        // has been manually sent to the contract\r\n        uint256 initialBalance = address(this).balance;\r\n\r\n        // swap tokens for ETH\r\n        swapTokensForEth(half);\r\n        // <- this breaks the ETH -> HATE swap when swap+liquify is triggered\r\n\r\n        // how much ETH did we just swap into?\r\n        uint256 newBalance = address(this).balance.sub(initialBalance);\r\n\r\n        // add liquidity to Pancake\r\n        addLiquidity(otherHalf, newBalance);\r\n\r\n        emit SwapAndLiquify(half, newBalance, otherHalf);\r\n    }\r\n\r\n    function swapTokensForEth(uint256 tokenAmount) private {\r\n        // generate the Pancake pair path of token -> weth\r\n        address[] memory path = new address[](2);\r\n        path[0] = address(this);\r\n        path[1] = pancakeswapV2Router.WETH();\r\n\r\n        _approve(address(this), address(pancakeswapV2Router), tokenAmount);\r\n\r\n        // make the swap\r\n        pancakeswapV2Router.swapExactTokensForETHSupportingFeeOnTransferTokens(\r\n            tokenAmount,\r\n            0, // accept any amount of ETH\r\n            path,\r\n            address(this),\r\n            block.timestamp\r\n        );\r\n    }\r\n\r\n    function addLiquidity(uint256 tokenAmount, uint256 ethAmount) private {\r\n        // approve token transfer to cover all possible scenarios\r\n        _approve(address(this), address(pancakeswapV2Router), tokenAmount);\r\n\r\n        // add the liquidity\r\n        pancakeswapV2Router.addLiquidityETH{value : ethAmount}(\r\n            address(this),\r\n            tokenAmount,\r\n            0, // slippage is unavoidable\r\n            0, // slippage is unavoidable\r\n            owner(),\r\n            block.timestamp\r\n        );\r\n    }\r\n\r\n    function excludeFromFee(address account) public onlyOwner {\r\n        _excludedFromFee[account] = true;\r\n    }\r\n\r\n    function includeInFee(address account) public onlyOwner {\r\n        _excludedFromFee[account] = false;\r\n    }\r\n\r\n    function isExcludedFromFee(address account) public view returns (bool) {\r\n        return _excludedFromFee[account];\r\n    }\r\n\r\n    // special fee methods\r\n    function includeInSpecialFee(address account) public onlyOwner {\r\n        _includedInSpecialFee[account] = true;\r\n    }\r\n\r\n    function excludeFromSpecialFee(address account) public onlyOwner {\r\n        _includedInSpecialFee[account] = false;\r\n    }\r\n\r\n    function isIncludedInSpecialFee(address account) public view returns (bool) {\r\n        return _includedInSpecialFee[account];\r\n    }\r\n\r\n    /**\r\n     * @dev Returns the name of the token.\r\n     */\r\n    function name() public view virtual returns (string memory) {\r\n        return _name;\r\n    }\r\n\r\n    /**\r\n     * @dev Returns the symbol of the token, usually a shorter version of the\r\n     * name.\r\n     */\r\n    function symbol() public view virtual returns (string memory) {\r\n        return _symbol;\r\n    }\r\n\r\n    /**\r\n     * @dev Returns the number of decimals used to get its user representation.\r\n     * For example, if `decimals` equals `2`, a balance of `505` tokens should\r\n     * be displayed to a user as `5,05` (`505 / 10 ** 2`).\r\n     *\r\n     * Tokens usually opt for a value of 18, imitating the relationship between\r\n     * Ether and Wei. This is the value {BEP20} uses, unless {_setupDecimals} is\r\n     * called.\r\n     *\r\n     * NOTE: This information is only used for _display_ purposes: it in\r\n     * no way affects any of the arithmetic of the contract, including\r\n     * {IBEP20-balanceOf} and {IBEP20-transfer}.\r\n     */\r\n    function decimals() public view virtual returns (uint8) {\r\n        return _decimals;\r\n    }\r\n\r\n    /**\r\n     * @dev See {IBEP20-totalSupply}.\r\n     */\r\n    function totalSupply() public view virtual override returns (uint256) {\r\n        return _totalSupply;\r\n    }\r\n\r\n    /**\r\n     * @dev See {IBEP20-balanceOf}.\r\n     */\r\n    function balanceOf(address account) public view virtual override returns (uint256) {\r\n        return _balances[account];\r\n    }\r\n\r\n    /**\r\n     * @dev See {IBEP20-transfer}.\r\n     *\r\n     * Requirements:\r\n     *\r\n     * - `recipient` cannot be the zero address.\r\n     * - the caller must have a balance of at least `amount`.\r\n     */\r\n    function transfer(address recipient, uint256 amount) public virtual override returns (bool) {\r\n        _transfer(_msgSender(), recipient, amount);\r\n        return true;\r\n    }\r\n\r\n    /**\r\n     * @dev See {IBEP20-allowance}.\r\n     */\r\n    function allowance(address owner, address spender) public view virtual override returns (uint256) {\r\n        return _allowances[owner][spender];\r\n    }\r\n\r\n    /**\r\n     * @dev See {IBEP20-approve}.\r\n     *\r\n     * Requirements:\r\n     *\r\n     * - `spender` cannot be the zero address.\r\n     */\r\n    function approve(address spender, uint256 amount) public virtual override returns (bool) {\r\n        _approve(_msgSender(), spender, amount);\r\n        return true;\r\n    }\r\n\r\n    /**\r\n     * @dev See {IBEP20-transferFrom}.\r\n     *\r\n     * Emits an {Approval} event indicating the updated allowance. This is not\r\n     * required by the EIP. See the note at the beginning of {BEP20}.\r\n     *\r\n     * Requirements:\r\n     *\r\n     * - `sender` and `recipient` cannot be the zero address.\r\n     * - `sender` must have a balance of at least `amount`.\r\n     * - the caller must have allowance for ``sender``'s tokens of at least\r\n     * `amount`.\r\n     */\r\n    function transferFrom(address sender, address recipient, uint256 amount) public virtual override returns (bool) {\r\n        _transfer(sender, recipient, amount);\r\n        _approve(sender, _msgSender(), _allowances[sender][_msgSender()].sub(amount, \"BEP20: transfer amount exceeds allowance\"));\r\n        return true;\r\n    }\r\n\r\n    /**\r\n     * @dev Atomically increases the allowance granted to `spender` by the caller.\r\n     *\r\n     * This is an alternative to {approve} that can be used as a mitigation for\r\n     * problems described in {IBEP20-approve}.\r\n     *\r\n     * Emits an {Approval} event indicating the updated allowance.\r\n     *\r\n     * Requirements:\r\n     *\r\n     * - `spender` cannot be the zero address.\r\n     */\r\n    function increaseAllowance(address spender, uint256 addedValue) public virtual returns (bool) {\r\n        _approve(_msgSender(), spender, _allowances[_msgSender()][spender].add(addedValue));\r\n        return true;\r\n    }\r\n\r\n    /**\r\n     * @dev Atomically decreases the allowance granted to `spender` by the caller.\r\n     *\r\n     * This is an alternative to {approve} that can be used as a mitigation for\r\n     * problems described in {IBEP20-approve}.\r\n     *\r\n     * Emits an {Approval} event indicating the updated allowance.\r\n     *\r\n     * Requirements:\r\n     *\r\n     * - `spender` cannot be the zero address.\r\n     * - `spender` must have allowance for the caller of at least\r\n     * `subtractedValue`.\r\n     */\r\n    function decreaseAllowance(address spender, uint256 subtractedValue) public virtual returns (bool) {\r\n        _approve(_msgSender(), spender, _allowances[_msgSender()][spender].sub(subtractedValue, \"BEP20: decreased allowance below zero\"));\r\n        return true;\r\n    }\r\n\r\n    /** @dev Creates `amount` tokens and assigns them to `account`, increasing\r\n     * the total supply.\r\n     *\r\n     * Emits a {Transfer} event with `from` set to the zero address.\r\n     *\r\n     * Requirements:\r\n     *\r\n     * - `to` cannot be the zero address.\r\n     */\r\n    function _mint(address account, uint256 amount) internal virtual {\r\n        require(account != address(0), \"BEP20: mint to the zero address\");\r\n\r\n        _beforeTokenTransfer(address(0), account, amount);\r\n\r\n        _totalSupply = _totalSupply.add(amount);\r\n        _balances[account] = _balances[account].add(amount);\r\n        emit Transfer(address(0), account, amount);\r\n    }\r\n\r\n    /**\r\n     * @dev Destroys `amount` tokens from `account`, reducing the\r\n     * total supply.\r\n     *\r\n     * Emits a {Transfer} event with `to` set to the zero address.\r\n     *\r\n     * Requirements:\r\n     *\r\n     * - `account` cannot be the zero address.\r\n     * - `account` must have at least `amount` tokens.\r\n     */\r\n    function _burn(address account, uint256 amount) internal virtual {\r\n        require(account != address(0), \"BEP20: burn from the zero address\");\r\n\r\n        _beforeTokenTransfer(account, address(0), amount);\r\n\r\n        _balances[account] = _balances[account].sub(amount, \"BEP20: burn amount exceeds balance\");\r\n        _totalSupply = _totalSupply.sub(amount);\r\n        emit Transfer(account, address(0), amount);\r\n    }\r\n\r\n    /**\r\n     * @dev Sets `amount` as the allowance of `spender` over the `owner` s tokens.\r\n     *\r\n     * This internal function is equivalent to `approve`, and can be used to\r\n     * e.g. set automatic allowances for certain subsystems, etc.\r\n     *\r\n     * Emits an {Approval} event.\r\n     *\r\n     * Requirements:\r\n     *\r\n     * - `owner` cannot be the zero address.\r\n     * - `spender` cannot be the zero address.\r\n     */\r\n    function _approve(address owner, address spender, uint256 amount) internal virtual {\r\n        require(owner != address(0), \"BEP20: approve from the zero address\");\r\n        require(spender != address(0), \"BEP20: approve to the zero address\");\r\n\r\n        _allowances[owner][spender] = amount;\r\n        emit Approval(owner, spender, amount);\r\n    }\r\n\r\n    /**\r\n     * @dev Sets {decimals} to a value other than the default one of 18.\r\n     *\r\n     * WARNING: This function should only be called from the constructor. Most\r\n     * applications that interact with token contracts will not expect\r\n     * {decimals} to ever change, and may work incorrectly if it does.\r\n     */\r\n    function _setupDecimals(uint8 decimals_) internal virtual {\r\n        _decimals = decimals_;\r\n    }\r\n\r\n    /**\r\n     * @dev Hook that is called before any transfer of tokens. This includes\r\n     * minting and burning.\r\n     *\r\n     * Calling conditions:\r\n     *\r\n     * - when `from` and `to` are both non-zero, `amount` of ``from``'s tokens\r\n     * will be to transferred to `to`.\r\n     * - when `from` is zero, `amount` tokens will be minted for `to`.\r\n     * - when `to` is zero, `amount` of ``from``'s tokens will be burned.\r\n     * - `from` and `to` are never both zero.\r\n     *\r\n     * To learn more about hooks, head to xref:ROOT:extending-contracts.adoc#using-hooks[Using Hooks].\r\n     */\r\n    function _beforeTokenTransfer(address from, address to, uint256 amount) internal virtual {}\r\n}",
  "sourcePath": "D:/projects/herman/contracts/XPSToken.sol",
  "compiler": {
    "name": "solc",
    "version": "0.8.4+commit.c7e474f2.Emscripten.clang"
  },
  "schemaVersion": "3.4.1",
  "updatedAt": "2021-07-27T08:50:27.968Z",
  "networkType": "ethereum",
  "devdoc": {
    "author": "AmberSoft (visit https://ambersoft.llc)",
    "details": "Mintable BEP20 token with burning and optional functions implemented. Any address with minter role can mint new tokens. For full specification of ERC-20 standard see: https://github.com/ethereum/EIPs/blob/master/EIPS/eip-20.md",
    "kind": "dev",
    "methods": {
      "allowance(address,address)": {
        "details": "See {IBEP20-allowance}."
      },
      "approve(address,uint256)": {
        "details": "See {IBEP20-approve}. Requirements: - `spender` cannot be the zero address."
      },
      "balanceOf(address)": {
        "details": "See {IBEP20-balanceOf}."
      },
      "decimals()": {
        "details": "Returns the number of decimals used to get its user representation. For example, if `decimals` equals `2`, a balance of `505` tokens should be displayed to a user as `5,05` (`505 / 10 ** 2`). Tokens usually opt for a value of 18, imitating the relationship between Ether and Wei. This is the value {BEP20} uses, unless {_setupDecimals} is called. NOTE: This information is only used for _display_ purposes: it in no way affects any of the arithmetic of the contract, including {IBEP20-balanceOf} and {IBEP20-transfer}."
      },
      "decreaseAllowance(address,uint256)": {
        "details": "Atomically decreases the allowance granted to `spender` by the caller. This is an alternative to {approve} that can be used as a mitigation for problems described in {IBEP20-approve}. Emits an {Approval} event indicating the updated allowance. Requirements: - `spender` cannot be the zero address. - `spender` must have allowance for the caller of at least `subtractedValue`."
      },
      "increaseAllowance(address,uint256)": {
        "details": "Atomically increases the allowance granted to `spender` by the caller. This is an alternative to {approve} that can be used as a mitigation for problems described in {IBEP20-approve}. Emits an {Approval} event indicating the updated allowance. Requirements: - `spender` cannot be the zero address."
      },
      "name()": {
        "details": "Returns the name of the token."
      },
      "owner()": {
        "details": "Returns the address of the current owner."
      },
      "renounceOwnership()": {
        "details": "Leaves the contract without owner. It will not be possible to call `onlyOwner` functions anymore. Can only be called by the current owner. NOTE: Renouncing ownership will leave the contract without an owner, thereby removing any functionality that is only available to the owner."
      },
      "symbol()": {
        "details": "Returns the symbol of the token, usually a shorter version of the name."
      },
      "totalSupply()": {
        "details": "See {IBEP20-totalSupply}."
      },
      "transfer(address,uint256)": {
        "details": "See {IBEP20-transfer}. Requirements: - `recipient` cannot be the zero address. - the caller must have a balance of at least `amount`."
      },
      "transferFrom(address,address,uint256)": {
        "details": "See {IBEP20-transferFrom}. Emits an {Approval} event indicating the updated allowance. This is not required by the EIP. See the note at the beginning of {BEP20}. Requirements: - `sender` and `recipient` cannot be the zero address. - `sender` must have a balance of at least `amount`. - the caller must have allowance for ``sender``'s tokens of at least `amount`."
      },
      "transferOwnership(address)": {
        "details": "Transfers ownership of the contract to a new account (`newOwner`). Can only be called by the current owner."
      }
    },
    "title": "BEP20Token",
    "version": 1
  },
  "userdoc": {
    "kind": "user",
    "methods": {},
    "version": 1
  }
}